:100000000C948B030C94EE110C9415120C94B30306
:100010000C94B3030C94B3030C94B3030C94B30388
:100020000C94B3030C943C120C94B3030C94B303E0
:100030000C94B3030C94B3030C94B3030C94B30368
:100040000C94B3030C94B3030C94B3030C94B30358
:100050000C94B303ED04F004FD04000518051B0522
:100060001E055F067B068A069B065606DD06EF0622
:10007000EF06AE067F098209850988098B098E097A
:100080009109630C660C690C950C9E0C9B0CA00CE2
:10009000A00C980C0A0E2D73C440AA8FDDF36B9749
:1000A000B98D7757E352933F2507995F8B37307BA4
:1000B0003A89C6AE4E58E44B4805D6F25C44EFF898
:1000C00069F692561D96AB2F8835F53683FC8E6007
:1000D000E0DAA85BDF7E4D3B38912BFA21C2230D7D
:1000E0002ECE3CB60332ED86E60F556A34B8704525
:1000F000499B76BC185A414628FD2CB0EAB2DE6511
:10010000BB1059F19DB729D4EB42856F39D52690A4
:100110007FA7E8D998C18C1162AD81660C5D190189
:100120001EC887E12AD224D143E74F68C0AF5E9E44
:1001300084E250CB1AC3B47404AC64A013D331006E
:100140009CFE4AB378153EEE947C1C72A1209F95CC
:10015000CF3D82B5BD54A6476E75C71BD70916F0B3
:100160001202B1064CCDA9A26CA561CA7D1F22174F
:1001700014C5D86D8AF751A3FBF463BF79C927EC86
:100180007A9ABE80FFE5BACC0BDBDCF967E9A408FC
:10019000D0713353494A4B4B4A494949494847452D
:1001A00044434343444443413E3D3B39383737366B
:1001B0003636373737373737363533323131343DE6
:1001C0004D6584A9CFEEFFFEEAC69A6D4425110560
:1001D0000001060D141C242D34393D404142434496
:1001E000444546474747474747474748484849499E
:1001F0004A4B4B4C4D4E4F505152535456585B5DE9
:1002000060626466686B6D707376797B7D7E7F7FDC
:100210007F7F7F7E7D7C797774716D6966625F5CBC
:10022000595754514F4D4C4B4A4948464544434316
:100230004344444445454545454545464748494965
:100240004A4A4B4B4B4B4B4B4A4A49494949484810
:10025000484747474747474746464645454545453A
:10026000464646454444434343434242424141415A
:10027000414141414140403F3F4040414141414176
:100280004141404040404040404041414142434460
:100290004547484900020406080A0C0E10121416BD
:1002A000181A1C1E20222426282A2C2E30323436DE
:1002B000383A3C3E40424446484A4C4E50525456CE
:1002C000585A5C5E60626466686A6C6E70727476BE
:1002D000787A7C7E80828486888A8C8E90929496AE
:1002E000989A9C9EA0A2A4A6A8AAACAEB0B2B4B69E
:1002F000B8BABCBEC0C2C4C6C8CACCCED0D2D4D68E
:10030000D8DADCDEE0E2E4E6E8EAECEEF0F2F4F67D
:10031000F8FAFCFEFFFDFBF9F7F5F3F1EFEFEBE97F
:10032000E7E5E3E1DFDDDBD9D7D5D3D1CFCFCBC94B
:10033000C7C5C3C1BFBDBBB9B7B5B3B1AFAFABA93B
:10034000A7A5A3A19F9D9B99979593918F8F8B892B
:10035000878583817F7D7B79777573716F6F6B691B
:10036000676563615F5D5B59575553514F4F4B490B
:10037000474543413F3D3B39373533312F2F2B29FB
:10038000272523211F1D1B19171513110F0F0B09EB
:1003900007050301FFFEFDFCFBFAF9F8F7F6F5F49B
:1003A000F3F2F1F0EFEEEDECEBEAE9E8E7E6E5E495
:1003B000E3E2E1E0DFDEDDDCDBDAD9D8D7D6D5D485
:1003C000D3D2D1D0CFCECDCCCBCAC9C8C7C6C5C475
:1003D000C3C2C1C0BFBEBDBCBBBAB9B8B7B6B5B465
:1003E000B3B2B1B0AFAEADACABAAA9A8A7A6A5A455
:1003F000A3A2A1A09F9E9D9C9B9A99989796959445
:10040000939291908F8E8D8C8B8A89888786858434
:10041000838281807F7E7D7C7B7A79787776757424
:10042000737271706F6E6D6C6B6A69686766656414
:10043000636261605F5E5D5C5B5A59585756555404
:10044000535251504F4E4D4C4B4A494847464544F4
:10045000434241403F3E3D3C3B3A393837363534E4
:10046000333231302F2E2D2C2B2A292827262524D4
:10047000232221201F1E1D1C1B1A191817161514C4
:10048000131211100F0E0D0C0B0A090807060504B4
:1004900003020100000102030405060708090A0B14
:1004A0000C0D0E0F101112131415161718191A1B14
:1004B0001C1D1E1F202122232425262728292A2B04
:1004C0002C2D2E2F303132333435363738393A3BF4
:1004D0003C3D3E3F404142434445464748494A4BE4
:1004E0004C4D4E4F505152535455565758595A5BD4
:1004F0005C5D5E5F606162636465666768696A6BC4
:100500006C6D6E6F707172737475767778797A7BB3
:100510007C7D7E7F808182838485868788898A8BA3
:100520008C8D8E8F909192939495969798999A9B93
:100530009C9D9E9FA0A1A2A3A4A5A6A7A8A9AAAB83
:10054000ACADAEAFB0B1B2B3B4B5B6B7B8B9BABB73
:10055000BCBDBEBFC0C1C2C3C4C5C6C7C8C9CACB63
:10056000CCCDCECFD0D1D2D3D4D5D6D7D8D9DADB53
:10057000DCDDDEDFE0E1E2E3E4E5E6E7E8E9EAEB43
:10058000ECEDEEEFF0F1F2F3F4F5F6F7F8F9FAFB33
:10059000FCFDFEFF808386898C8F9295989C9FA29C
:1005A000A5A8ABAEB0B3B6B9BCBFC1C4C7C9CCCEA9
:1005B000D1D3D5D8DADCDEE0E2E4E6E8EAECEDEF30
:1005C000F0F2F3F5F6F7F8F9FAFBFCFCFDFEFEFF9E
:1005D000FFFFFFFFFFFFFFFFFFFFFEFEFDFCFCFB39
:1005E000FAF9F8F7F6F5F3F2F0EFEDECEAE8E6E405
:1005F000E2E0DEDCDAD8D5D3D1CECCC9C7C4C1BFE6
:10060000BCB9B6B3B0AEABA8A5A29F9C9895928F8B
:100610008C898683807C797673706D6A6763605D90
:100620005A5754514F4C494643403E3B383633317C
:100630002E2C2A272523211F1D1B191715131210D5
:100640000F0D0C0A09080706050403030201010047
:10065000000000000000000000000101020303048C
:1006600005060708090A0C0D0F1012131517191BA0
:100670001D1F212325272A2C2E313336383B3E409F
:100680004346494C4F5154575A5D6063676A6D70D9
:100690007376797C0000000100000000000000007B
:1006A000040300060000000000000000000000003D
:1006B000000000000102040810204080010204082C
:1006C000102040800102040810204080010204082C
:1006D000102040800202020202020202040404040A
:1006E00004040404030303030303030301010101DE
:1006F0000101010100003900360033003000000024
:100700003B0038003500320000003A00370034006A
:100710003100E20F181011241FBECFE5D4E0DEBF78
:10072000CDBF10E0A0E6B0E0E2EAF6E302C005903B
:100730000D92AA3CB107D9F722E0AAECB0E001C0C3
:100740001D92A43AB207E1F713E0CAE8D3E004C06F
:100750002197FE010E94981AC938D107C9F70E9453
:10076000BF150C94441B0C940000CF92DF92EF92C3
:10077000FF926B017C0161E08DE00E94EA121FBCD8
:100780001EBC1DBC1CBCC701B6010E9402199B0106
:10079000AC016CEF79EE86EF92E40E94581820E0ED
:1007A0003FEF4FE757E40E94B21920E030E040EA03
:1007B00051E40E94B21920E030E040E85DE30E947D
:1007C000B2190E94D1187BBD6ABD8FB580648FBD00
:1007D0008EB588608EBD8EB581608EBDFF90EF9026
:1007E000DF90CF900895CF92DF92EF92FF92CF9358
:1007F000DF93EC01862F90E02AE1629FF001112443
:10080000E852FF4F25814C2FE42FFD2F3E2F341B44
:10081000321710F41192FACF3AE1389FF001399F64
:10082000F00D1124E852FF4F608171818281938124
:1008300030E0C20FD31F2AE0C22ED12CE12CF12CC4
:1008400016161706180619064CF42197A7019601EB
:100850000E94791A6883B901CA01F2CFDF91CF9162
:10086000FF90EF90DF90CF9008952F923F924F929C
:100870005F926F927F928F92AF92CF92DF92EF92C0
:10088000FF920F931F93CF93DF9300D000D0CDB78B
:10089000DEB73C0149835A836B837C831901DC01F9
:1008A00014961C922C01B6E04B0E511C68EA70E0C5
:1008B000C2010E947E1489819A81AB81BC81F301BF
:1008C00080839183A283B383B101C2010E949314F8
:1008D000F80180819181A281B381F301848795879A
:1008E000A687B787D80114965C91149715964C91FA
:1008F000159716963C91169717962C91508B418B15
:10090000328B238BE48AC58AA68A878AEF89F88D81
:100910008081D30158968C935897818159968C93F6
:10092000652F742F832F922F97FF07C09095809586
:10093000709561957F4F8F4F9F4F2AE030E040E0E8
:1009400050E00E94791A11E08AE0C82ED12CE12CE7
:10095000F12C121613061406150644F41F5FCA0183
:10096000B901A70196010E94791AF3CFF30115830B
:100970000F900F900F900F90DF91CF911F910F91DB
:10098000FF90EF90DF90CF90AF908F907F906F901F
:100990005F904F903F902F90089520E030E0FB0152
:1009A000E20FF31FE491DC01ED93CD012F5F3F4F88
:1009B0002115B1E03B0799F70895FF920F931F931C
:1009C000CF93DF93D82FC92FF22E4730510570F403
:1009D000FA01E65DFF4F0C94981A64E975E002C0D5
:1009E00064E974E08D2F9C2F0E94CD04ED2FFC2F25
:1009F0009F013395C4E6D0E024C064E973E0F2CFF0
:100A0000902F80E064E670E00E94431AED2FFC2FE7
:100A100080E090E02FEF8617970710F4208301C045
:100A2000108201963196811531E09307A1F7DECF50
:100A300064E971E0D7CF64E970E0D4CF64E972E093
:100A4000D1CF80818F9DC0011124BE010E942F1A39
:100A50006193E217F307A9F7DF91CF911F910F91EF
:100A6000FF9008956130A1F4FC01EE57FF4F6081C3
:100A70007181828193810E94B50360E088E10E94C8
:100A8000EA1260E088E10E9426138FEF84BB08958C
:100A90001FBC1EBC14BA61E088E10E94EA1260E04B
:100AA00088E10C942613EF92FF920F931F93CF933C
:100AB000DF938C01FC01EC55FF4F308120E082E395
:100AC000E82EF12CC62FD0E02317C1F027FD0DC072
:100AD000E22FEE0FFF0BE00FF11FE156FF4F608199
:100AE00070E0C7010E94431A01C062E3062E000CA9
:100AF000770B6C177D0714F02F5FE6CF8FEF820F17
:100B0000DF91CF911F910F91FF90EF900895CF92B9
:100B1000DF92EF92FF920F931F93CF93DF9300D05A
:100B200000D0CDB7DEB78C019A01462F622F298302
:100B30003A834B837C830E945305E82FA4E6B0E000
:100B400029813A814B817C81572F0E949E1A6B012B
:100B50007C01E7FD11C0EE0FFF0BC8018E0F9F1F38
:100B6000FC01E156FF4F2081622F70E082E390E0AC
:100B70000E94431A262F01C022E3022E000C330BE1
:100B8000440B550BC701B6010E94791ACA01B9017D
:100B90000F900F900F900F90DF91CF911F910F91B9
:100BA000FF90EF90DF90CF9008958F929F92AF9239
:100BB000BF92CF92DF92EF92FF920F931F93CF934A
:100BC000DF937C01D42E852E962EC72E642F0E9493
:100BD0005305C82FD0E0570184EAA80EB11CF501D7
:100BE0008081D817A0F497012D0F311D2D0F311DD5
:100BF000890102561F4F60E0F80180810E94EA12CD
:100C000060E0F80180810E942613DF5FE8CFC7FD16
:100C10000EC0CC0FDD0BCE0DDF1DC256DF4F61E0E5
:100C200088810E94EA1260E088810E9426134D2D7F
:100C3000582D692D7C2DC7010E948705862FF7014D
:100C4000E859FF4F0081118122813381F7014081F2
:100C5000518162817381282F8DE791E00E94DD042C
:100C6000DF91CF911F910F91FF90EF90DF90CF9088
:100C7000BF90AF909F908F900895AF92BF92CF9208
:100C8000DF92EF92FF920F931F93CF93DF93462F44
:100C9000660F550B660B770B4930510508F09FC066
:100CA000EC01FA01EF5CFF4F0C94981A888199814E
:100CB000AA81BB810397A105B10509F090C0FE018F
:100CC000E25BFF4F4081518162817381CE010E94BE
:100CD0008705862FFE01E859FF4F0081118122818F
:100CE0003381488159816A817B81282F8DE791E08A
:100CF0000E94DD0474C06A8D7B8D8C8D9D8D24E1F6
:100D000030E040E050E00E94791A30937E02209358
:100D10007D0265C06CA97DA98EA99FA9CE01DF9136
:100D2000CF911F910F91FF90EF90DF90CF90BF90E8
:100D3000AF900C943205FC01E25BFF4F4081518182
:100D400062817381DF91CF911F910F91FF90EF909E
:100D5000DF90CF90BF90AF900C94D505C053DF4F7C
:100D600088819981AA81BB81C296A11DB11DBC0158
:100D7000CD017727882799271F921F921F922FEF67
:100D80002F93A12CB12C650114E6E12EF12C00E08B
:100D900010E020E030E0A9010E94CF13C62F61E0EF
:100DA0008FE00E94EA1215BC85B5896685BDC3BD7A
:100DB0000F900F900F900F9012C0CE57DF4F6881A9
:100DC00079818A819B81DF91CF911F910F91FF9053
:100DD000EF90DF90CF90BF90AF900C94B503DF9170
:100DE000CF911F910F91FF90EF90DF90CF90BF9028
:100DF000AF9008952F923F924F925F926F927F92A1
:100E00008F92AF92BF92CF92DF92EF92FF920F93A9
:100E10001F93CF93DF9300D000D000D0CDB7DEB7C3
:100E20003C0182E090E00E94CE157C01DD24D39449
:100E3000FC01D082118288E090E00E94CE158C01E6
:100E4000FC01108211821282138286E090E0A0E001
:100E5000B0E084839583A683B78368EA70E0CE010F
:100E600001960E947E14FF92EF92812CA12CCC243B
:100E7000C394EE24E3949E012F5F3F4F40E050E087
:100E8000BA01C3010E943504CE0101960E941014DC
:100E900082E090E00E94CE157C0186E0B82EF7013A
:100EA000B082118288E090E00E94CE158C0184E12E
:100EB00090E0A0E0B0E0F80180839183A283B38347
:100EC0008FE996E8A1E0B0E084839583A683B78399
:100ED00068EA70E0CE0101960E947E14FF92EF92C4
:100EE000AA24A394EE24E3949E012F5F3F4F48EE83
:100EF00053E060E070E0C3014A960E943504CE01E1
:100F000001960E94101482E090E00E94CE157C01B0
:100F10008FE0F7018083118288E090E00E94CE1577
:100F20008C01FC011082118212821382212C312C3F
:100F300021012394248235824682578268EA70E038
:100F4000CE0101960E947E14FF92EF92A12CEE2416
:100F5000E3949E012F5F3F4F40E050E0BA01C30190
:100F6000C4960E943504CE0101960E94101482E0BE
:100F700090E00E94CE157C01FC01D082D18288E0F5
:100F800090E00E94CE158C01FC0110821182128229
:100F9000138282E390E0A0E0B0E084839583A6838F
:100FA000B78368EA70E0CE0101960E947E14FF923A
:100FB000EF922AE0E22E9E012F5F3F4F42E350E086
:100FC00060E070E0C301825B9F4F0E943504CE0158
:100FD00001960E94101482E090E00E94CE157C01E0
:100FE0008AE0F7018083D18288E090E00E94CE15EC
:100FF0008C01FC01208231824282538283E690E0A0
:10100000A0E0B0E084839583A683B78368EA70E0AC
:10101000CE0101960E947E14FF92EF92EE24E3949B
:101020009E012F5F3F4F42E350E060E070E0C3015C
:1010300088599F4F0E943504CE0101960E941014DA
:1010400082E090E00E94CE157C0185E0F70180836C
:10105000118288E090E00E94CE158C0186E990E034
:10106000A0E0B0E0F80180839183A283B38380EC99
:1010700098EDA7EAB0E084839583A683B78368EAF6
:1010800070E0CE0101960E947E14FF92EF928824B8
:101090008394AA24A394EE24E3949E012F5F3F4FF0
:1010A00048EE53E060E070E0C3018E579F4F0E940E
:1010B0003504CE0101960E941014F301E456FF4F4F
:1010C00010823196B082D301A256BF4F86E0E0E78E
:1010D000F0E001900D928A95E1F7F301EC55FF4F96
:1010E00083E080830FB6F894DEBF0FBECDBF269697
:1010F0000FB6F894DEBF0FBECDBFDF91CF911F9129
:101100000F91FF90EF90DF90CF90BF90AF908F90B6
:101110007F906F905F904F903F902F9008954F92E7
:101120005F926F927F928F929F92AF92BF92CF9277
:10113000DF92EF92FF920F931F93CF93DF93CDB780
:10114000DEB72A970FB6F894DEBF0FBECDBF5C01A5
:1011500069017A0168EA70E00E947E14F7FE0DC012
:10116000F094E094D094C094C11CD11CE11CF11CFB
:1011700066E770E0C5010E9458152801012E000C99
:1011800066087708C701B601A30192010E94791A87
:101190002F83388749875A872AE04F815885698588
:1011A0007A85CE0101960E94F614BE016F5F7F4FD3
:1011B000C5010E945115CE0101960E941014023003
:1011C00011050CF45AC068E770E0C5010E9458157B
:1011D0002F81388549855A85C301B2010E941F1AA3
:1011E000C61AD70AE80AF90A812C912C2AE030E0C5
:1011F0008FEF881A980AC801B9010E94431A8B011F
:1012000062307105ACF7A701960100E010E08AE0BA
:10121000482E512C612C712C0F5F1F4FCA01B90150
:10122000A30192010E94791A1216130614061506DC
:101230009CF3712CC401801B910B8C01872D072C12
:10124000000C990B801791073CF46AE770E0C50128
:101250000E9458157394F2CF2AE0B701A601CE017F
:1012600001960E94F614BE016F5F7F4FC5010E9478
:101270005115CE0101960E941014C5012A960FB691
:10128000F894DEBF0FBECDBFDF91CF911F910F91BC
:10129000FF90EF90DF90CF90BF90AF909F908F9096
:1012A0007F906F905F904F900895CF93DF93CDB76D
:1012B000DEB72C970FB6F894DEBF0FBECDBF80917E
:1012C000D8009091D900A091DA00B091DB00409154
:1012D000F1006091F0008FE792E00E94D6108091BB
:1012E000D8009091D900A091DA00B091DB0087304E
:1012F0009105E8F4FC01E65CFF4F0C94981A6CE74A
:1013000070E011C061E870E00EC060E870E00BC0F2
:1013100065E870E008C06AE870E005C06EE870E05B
:1013200002C062E970E0CE0107960E947E14BE0101
:10133000695F7F4FCE0101960E94AA1467EA70E0B0
:10134000CE0101960E94A515BC018FE792E00E9494
:10135000BF13CE0101960E941014CE0107960E9481
:1013600010142C960FB6F894DEBF0FBECDBFDF91E0
:10137000CF910895EF92FF921F93CF93DF93CDB754
:10138000DEB72C970FB6F894DEBF0FBECDBF7C0141
:1013900040910B0160910A018FE792E00E94D61004
:1013A00067EA70E0CE0107960E947E148091F200F9
:1013B0009091F300A091F400B091F500B7FD3DC00D
:1013C00061E0D7018D919C910E94F30310E0809120
:1013D000F700181760F4D701ED91FC91E10FF11DB2
:1013E0006081CE0107960E9467151F5FF0CFBE0196
:1013F000695F7F4FCE0101960E94AA1467E970E0F1
:10140000CE0101960E94A515BC018FE792E00E94D3
:10141000BF13CE0101960E941014CE0107960E94C0
:1014200010142C960FB6F894DEBF0FBECDBFDF911F
:10143000CF911F91FF90EF90089566E770E0CE0185
:1014400007960E94B314BCCFEF92FF920F931F93A5
:10145000CF93DF93CDB7DEB72C970FB6F894DEBFEE
:101460000FBECDBF7C0140913F0160913E018FE7EF
:1014700092E00E94D6106AE970E0CE0107960E94C1
:101480007E1420912601309127014091280150912E
:10149000290100913A0110E0B701CE0101960E94A6
:1014A0008F08BE016F5F7F4FCE0107960E945115D6
:1014B000CE0101960E941014BE01695F7F4FCE01DC
:1014C00001960E94AA146DE970E0CE0101960E9477
:1014D000A515BC018FE792E00E94BF13CE010196D3
:1014E0000E941014CE0107960E9410142C960FB67D
:1014F000F894DEBF0FBECDBFDF91CF911F910F914A
:10150000FF90EF900895EF92FF920F931F93CF9368
:10151000DF93CDB7DEB72C970FB6F894DEBF0FBEC2
:10152000CDBF7C0140915901609158018FE792E055
:101530000E94D61060EA70E0CE0107960E947E14E9
:101540002091A8013091A9014091AA015091AB01CD
:101550000091BC0110E0B701CE0101960E948F08F6
:10156000BE016F5F7F4FCE0107960E945115CE01DD
:1015700001960E941014BE01695F7F4FCE01019653
:101580000E94AA146DE970E0CE0101960E94A51593
:10159000BC018FE792E00E94BF13CE0101960E942A
:1015A0001014CE0107960E9410142C960FB6F894D2
:1015B000DEBF0FBECDBFDF91CF911F910F91FF9086
:1015C000EF900895EF92FF921F93CF93DF93CDB7E3
:1015D000DEB72C970FB6F894DEBF0FBECDBF7C01EF
:1015E00040917301609172018FE792E00E94D610E2
:1015F00067EA70E0CE0107960E947E1480915A013E
:1016000090915B01A0915C01B0915D01B7FD41C07B
:1016100065E0D70112968D919C9113970E94F30378
:1016200010E080915F01181770F4D7011296ED91C8
:10163000FC911397E10FF11D6081CE0107960E9486
:1016400067151F5FEECFBE01695F7F4FCE01019628
:101650000E94AA1467E970E0CE0101960E94A515C8
:10166000BC018FE792E00E94BF13CE0101960E9459
:101670001014CE0107960E9410142C960FB6F89401
:10168000DEBF0FBECDBFDF91CF911F91FF90EF90D6
:10169000089566E770E0CE0107960E94B314B8CFB4
:1016A000EF92FF920F931F93CF93DF93CDB7DEB7E7
:1016B0002C970FB6F894DEBF0FBECDBF7C014091D2
:1016C0005901609158018FE792E00E94D61063EAB9
:1016D00070E0CE0107960E947E1420914001309167
:1016E000410140914201509143010091540110E0A9
:1016F000B701CE0101960E948F08BE016F5F7F4F38
:10170000CE0107960E945115CE0101960E94101439
:10171000BE01695F7F4FCE0101960E94AA1466EA5E
:1017200070E0CE0101960E94A515BC018FE792E002
:101730000E94BF13CE0101960E941014CE0107969D
:101740000E9410142C960FB6F894DEBF0FBECDBFCA
:10175000DF91CF911F910F91FF90EF900895CF925D
:10176000DF92EF92FF921F93CF93DF93CDB7DEB757
:101770002C970FB6F894DEBF0FBECDBF14E1C12C7D
:10178000D12C76018FE10E94B812BC01990F880B11
:10179000990B0E9402199B01AC01C701B6010E947E
:1017A000E7176B017C01115069F720E030E040EA57
:1017B00051E40E94581820E030E040EA50E40E94D2
:1017C000B21920E030EC4FE754E40E9458182AE99F
:1017D00039E949E350E40E94E61720E030E048ECA4
:1017E00052E40E94B21928E939E949E95FE30E940D
:1017F00058186B017C0120E030E0A9010E945318C9
:1018000087FD11C020E030E048EC52E4C701B6018A
:101810000E94531887FD0AC0C12CD12C88ECE82EF9
:1018200082E4F82E03C0C12CD12C760141E061E0A6
:101830008FE792E00E94D610C701B6010E94CA1835
:101840004AE0CE0107960E94CA1469EA70E0CE0110
:1018500001960E947E14BE01695F7F4FCE01019602
:101860000E94921563EB70E00E94A515BC018FE702
:1018700092E00E94BF13CE0101960E941014CE0187
:1018800007960E9410142C960FB6F894DEBF0FBE78
:10189000CDBFDF91CF911F91FF90EF90DF90CF9060
:1018A0000895CF93DF9300D000D000D0CDB7DEB73E
:1018B000462F50E04930510508F042C0FA01EF5B75
:1018C000FF4F0C94981A0E9455093AC00E94BA0919
:1018D00037C065EB70E0CE0101960E947E148091C6
:1018E0000C0190910D01A0910E01B0910F01019793
:1018F000A105B10531F467EB70E0CE0101960E94BD
:10190000B31440912501609124018FE792E00E9479
:10191000D610BE016F5F7F4F8FE792E00E94BF132A
:10192000CE0101960E9410140BC00E94240A08C028
:101930000E94830A05C00E94E20A02C00E94500B66
:1019400026960FB6F894DEBF0FBECDBFDF91CF91C4
:1019500008950F931F93CF93DF93EC01E0917401EF
:101960008AE1E89FF0011124E852FF4F8789813016
:1019700079F440E061E08FE792E00E94D61069EBD5
:1019800070E08FE792E00E94CD13CE010E94AF0B72
:1019900010E00AE1212F30E080917501082E000C43
:1019A000990B28173907CCF4E0917401029FD001FC
:1019B000039FB00D1124A852BF4F0E9FF0011124B8
:1019C000E852FF4F57969C918789981304C0612F66
:1019D000CE010E94510C1F5FDDCFDF91CF911F918F
:1019E0000F910895EF92FF920F931F93CF93DF9380
:1019F000CDB7DEB727970FB6F894DEBF0FBECDBFC9
:101A00008C01E09174018AE18E9FF0011124E8526B
:101A1000FF4FE788E09174018E9FF0011124E85296
:101A2000FF4F9789D80114968C9114979817B9F1A4
:101A30008FEF15968C9368EA70E0CE0101960E94B4
:101A40007E1480E1F82E67EA70E0CE0101960E94D4
:101A50005815FA94F110F7CF40E060E08FE792E07C
:101A60000E94D610BE016F5F7F4F8FE792E00E9409
:101A7000BF1341E060E08FE792E00E94D610BE0104
:101A80006F5F7F4F8FE792E00E94BF13CE010196F8
:101A90000E941014C8010E94A90CF801E482D80128
:101AA00016968C91811105C060917401C8010E9445
:101AB000510CD8011596EC91E7FD13C0BAE1EB0289
:101AC000F0011124E051FF4F6081615041818FE7A7
:101AD00092E00E94D61067EA70E08FE792E00E94E1
:101AE000CD13F09074012AE13F2D3203F00111244F
:101AF000E051FF4F6081615041818FE792E02F8379
:101B00000E94D610B801695F7F4F8FE792E00E9474
:101B1000BF13D8011596FC921597809174011D96FC
:101B20009C912F819923E9F0289F80011124F801CD
:101B3000E852FF4F7F018689882399F08FE792E072
:101B40000E94BD11F801E051FF4FD70114966C912E
:101B50008081680F6F5F41818FE792E00E94D6100D
:101B600004C08FE792E00E94B61127960FB6F89452
:101B7000DEBF0FBECDBFDF91CF911F910F91FF90C0
:101B8000EF9008951F93CF93DF9300D000D000D043
:101B9000CDB7DEB7FC0181E08093D0008081680F73
:101BA0006083208182819181821708F49083208153
:101BB000291708F4808310811130C1F0123051F1DF
:101BC00011113CC06CEB70E0CE0101960E947E14B6
:101BD000BE016F5F7F4F81ED90E00E949314CE01B4
:101BE00001960E9410141092D70028C06EEB70E08E
:101BF000CE0101960E947E14BE016F5F7F4F81ED82
:101C000090E00E949314CE0101960E94101410934C
:101C1000D70014C060EC70E0CE0101960E947E14E3
:101C2000BE016F5F7F4F81ED90E00E949314CE0163
:101C300001960E94101481E08093D7008AEC90E016
:101C40000E94F20C26960FB6F894DEBF0FBECDBFF1
:101C5000DF91CF911F9108958F929F92AF92BF9283
:101C6000CF92DF92EF92FF920F931F93CF93DF9368
:101C7000C62E1092D000DC012C91213009F4DDC079
:101C800008F409C1223009F01DC1E09174012AE174
:101C90002E9FF0011124E852FF4F86890C2C000C76
:101CA000DD08EE08FF08882309F476C0C0917401AE
:101CB000D0E02C9FF0012D9FF00D1124E852FF4F32
:101CC0008580082C000C9908B12C61E070E080E060
:101CD00090E08F010C5F1F4FD8012C914B2D50E0ED
:101CE000D401A21BB10927FDB39511979A012A17B8
:101CF0003B0744F4AAE0B0E09B01AC010E949E1AAD
:101D0000B394EACF80809180A280B380A70196012E
:101D10000E941F1ADC01CB01880D991DAA1DBB1D55
:101D2000048515852685378580179107A207B30797
:101D30000CF47CC0C088D188E288F388C816D90624
:101D4000EA06FB060CF472C080839183A283B383FE
:101D500080819181A281B381C816D906EA06FB066B
:101D600024F4C082D182E282F3828AE18C9FF00166
:101D70008D9FF00D1124E852FF4F80819181A28147
:101D8000B38180179107A207B3070CF04FC00083FF
:101D90001183228333834AC08091740190E0289F8D
:101DA000F001299FF00D1124E852FF4F408151812D
:101DB00062817381C40ED51EE61EF71E44855585CB
:101DC00066857785C416D506E606F7067CF1008998
:101DD0001189228933890C151D052E053F0534F123
:101DE000C082D182E282F382C080D180E280F3801F
:101DF0000C151D052E053F0524F400831183228355
:101E000033832AE1289FF001299FF00D1124E85225
:101E1000FF4F80819181A281B38184179507A60726
:101E2000B70724F440835183628373836091740104
:101E300088ED90E00E943D0645C0E09174012AE1E2
:101E40002E9FF0011124E852FF4F3689332309F405
:101E500049C0809174018091740190E0289FF00145
:101E6000299FF00D1124E852FF4F6481C60E258191
:101E7000022E000C330B4C2D50E0421753070CF090
:101E8000C12C2AE1289FF001299FF00D1124E8526E
:101E9000FF4FC48217C0161614F09FEF01C091E0E7
:101EA00080917401890F8093740180917401209155
:101EB000750130E090E08217930714F010927401DE
:101EC000809174018AEC90E0DF91CF911F910F9186
:101ED000FF90EF90DF90CF90BF90AF909F908F904A
:101EE0000C94F20C22E0FC01208360E00E94C20D01
:101EF000E9CF8FE00E945613892B11F061E001C0F9
:101F00006FEF80E690E00C942C0E61E080E690E0AC
:101F10000C94C20D13BE20E042E060E18FE792E036
:101F20000E94F1108AEC90E00E94F20C6091F200A5
:101F30007091F3008091F4009091F50024E130E07D
:101F400040E050E00E94791A30937E0220937D0297
:101F5000409126015091270160912801709129013B
:101F600088ED90E00E94D50562E08FE00E94EA12C1
:101F700062E08AE00E94EA1262E08BE00E94EA12CC
:101F800060E088ED90E00E94320542E050E069E7B1
:101F90007FE080E00E94CC1142E050E065E87FE005
:101FA00081E00C94CC1180E090E020917D02309192
:101FB0007E02820F931FE92FFF27E358FE4F2081F7
:101FC00025BBF3CFCF92EF920F93CF93DF9387E0B0
:101FD000C82E96E0E92E05E024E041E060E08FE7BE
:101FE00092E00E94961188ED90E00E94FA0680919E
:101FF000F70090E00E94CE15CAECD0E09983888368
:1020000080915F0190E00E94CE159B838A838FEFC1
:102010008C831D821E826CEB70E081ED90E00E944B
:102020007E141D86DF91CF910F91EF90CF90089590
:10203000CF93DF9381ED90E00E941014C4E7D1E0CC
:102040006A97CE0106960E94101480E0C83DD8071A
:10205000B9F7DF91CF910895CF93DF93EC0160E062
:102060008E810E94261381E090E00E94821261E03E
:102070008E810E94261381E090E00E94821260E02F
:102080008E810E94261384E690E0DF91CF910C941C
:102090008212CF92DF92EF92FF920F931F93CF9312
:1020A000DF937C016C0187E0C80ED11CC0E0D0E05A
:1020B000062F10E0B8010C2E02C0759567950A94A2
:1020C000E2F76170F60181916F010E94261321965B
:1020D000C430D10579F7C701DF91CF911F910F91DE
:1020E000FF90EF90DF90CF900C942C10CF92DF9266
:1020F000EF92FF920F931F93CF93DF937C016C01BC
:1021000087E0C80ED11CC0E0D0E0062F10E0B80177
:102110000C2E02C0759567950A94E2F76170F6017E
:1021200081916F010E9426132196C830D10579F75D
:10213000C701DF91CF911F910F91FF90EF90DF903A
:10214000CF900C942C101F93CF93DF93EC01162F9C
:10215000642F8C810E9426138D818F3F19F060E0DF
:102160000E9426138F85612F84FF06C0CE01DF9168
:10217000CF911F910C94761070E084E0759567956F
:102180008A95E1F7CE010E944910612FCE01DF91BF
:10219000CF911F910C94491040E00C94A31061E082
:1021A0000E94CC1080ED97E00C948212FC01443028
:1021B00008F043E08389481710F04FEF480FDF0124
:1021C000A40FB11D54969C91690F6068CF010C94C7
:1021D000CC10FC016089262F2460208B6C600C944D
:1021E000CC10EF92FF920F931F93CF93DF93EC01EC
:1021F000423018F08F8588608F874B8B1C8A80E473
:102200008D8B6E8B70E0605C7F4F6F8B222329F08B
:10221000413019F48F8584608F8761E08C810E9442
:10222000EA128D818F3F19F061E00E94EA1261E0AD
:102230008E810E94EA127E0187E0E80EF11C00E028
:1022400010E08F8584FD03C084E090E002C088E048
:1022500090E0081719074CF461E0F70181917F01C4
:102260000E94EA120F5F1F4FECCF80E593EC0E94B3
:10227000821260E08C810E94261360E08E810E94B1
:1022800026138D818F3F19F060E00E9426136F8521
:1022900064FD1DC063E0CE010E94491084E991E114
:1022A0000E94821263E0CE010E94491084E991E10C
:1022B0000E94821263E0CE010E94491086E990E0FC
:1022C0000E94821262E0CE010E94491016C0606234
:1022D000CE010E94CC1084E991E10E9482126F85A8
:1022E0006062CE010E94CC1086E990E00E948212CA
:1022F0006F856062CE010E94CC106F856062CE0156
:102300000E94CC1084E0888BCE010E94E910CE019F
:102310000E94CF1082E0898B66E0CE01DF91CF91E1
:102320001F910F91FF90EF900C94CC10CF92EF92F1
:102330000F93FC011382128286EC90E091838083DC
:1023400064838FEF8583468327830087E186C28677
:102350001386148615861686178620E041E060E114
:10236000CF010F91EF90CF900C94F110FC01608998
:102370006E7F608B68600C94CC10FC016089262F06
:102380002160208B69600C94CC1041E00E94A31066
:1023900081E090E0089508958330F8F4E82FF0E0AC
:1023A000EE0FFF1FED59FF4F71836083882319F0F3
:1023B000813041F0089585B78C7F482B45BF8BB79E
:1023C00080640AC085B7440F551F440F551F837F93
:1023D000482B45BF8BB780688BBF08951F920F9223
:1023E0000FB60F9211242F933F934F935F936F93E8
:1023F0007F938F939F93AF93BF93EF93FF93E0915E
:102400006300F09164000995FF91EF91BF91AF9146
:102410009F918F917F916F915F914F913F912F91FC
:102420000F900FBE0F901F9018951F920F920FB62E
:102430000F9211242F933F934F935F936F937F934A
:102440008F939F93AF93BF93EF93FF93E0916500BA
:10245000F09166000995FF91EF91BF91AF919F9127
:102460008F917F916F915F914F913F912F910F903D
:102470000FBE0F901F9018951F920F920FB60F92DC
:1024800011242F933F938F939F93AF93BF9380918A
:10249000980290919902A0919A02B0919B0230917A
:1024A000970226E6230F2D3728F029EE230F0196F9
:1024B000A11DB11D209397028093980290939902D9
:1024C000A0939A02B0939B0280919C0290919D02EE
:1024D000A0919E02B0919F020196A11DB11D809313
:1024E0009C0290939D02A0939E02B0939F02BF9185
:1024F000AF919F918F913F912F910F900FBE0F90B1
:102500001F901895000000009C012150310949F0EE
:10251000220F331F220F331F0397820F931F019740
:10252000F1F70895789483B7826083BF83B78160A1
:1025300083BF83B7806483BF83B7886083BF89B755
:10254000816089BF1EBC8EB582608EBD8EB58160F4
:102550008EBD8FB581608FBD85B5846085BD85B525
:10256000806485BD329A319A309A379A1AB80895A4
:10257000883028F0883110F0885101C08FEF8770C3
:102580002091690090E4299F90011124822B87B942
:10259000369A3699FECF84B125B190E0922B0895FA
:1025A000833049F018F4813089F00895843031F097
:1025B000863041F008958FB58F7702C08FB58F7D3B
:1025C0008FBD089585B58F7D85BD089583B78F7DB7
:1025D00083BF0895CF93DF9390E0FC01EC54F94F53
:1025E0002491FC01EC52F94F8491882361F190E031
:1025F000880F991FFC01E85FF84FC591D491FC0149
:10260000E250F94FA591B491611109C09FB7F894B8
:102610008881209582238883EC912E230BC0623021
:1026200061F49FB7F8943881822F80958323888343
:10263000EC912E2B2C939FBF06C08FB7F894E881A6
:102640002E2B28838FBFDF91CF9108951F93CF93B7
:10265000DF93282F30E0F901EC56F94F8491F9010E
:10266000EC54F94FD491F901EC52F94FC491CC23B9
:10267000C9F0162F81110E94D012EC2FF0E0EE0F5E
:10268000FF1FE250F94FA591B4918FB7F894111143
:1026900005C09C91ED2FE095E92302C0EC91ED2B54
:1026A000EC938FBFDF91CF911F910895CF93DF936C
:1026B000282F30E0F901EC56F94F8491F901EC54E0
:1026C000F94FD491F901EC52F94FC491CC2391F018
:1026D00081110E94D012EC2FF0E0EE0FFF1FEC50A2
:1026E000F94FA591B491EC91ED2381E090E021F4B4
:1026F00080E002C080E090E0DF91CF910895CF921A
:10270000DF92EF92FF920F931F93CF93DF936C01B1
:102710007A018B01C0E0D0E0CE15DF0589F0D80149
:102720006D918D01D601ED91FC910190F081E02D2C
:10273000C6010995892B11F47E0102C02196ECCFC8
:10274000C701DF91CF911F910F91FF90EF90DF9024
:10275000CF9008956115710579F0FB01019000207B
:10276000E9F73197AF01461B570BDC01ED91FC9166
:102770000280F381E02D099480E090E00895DC016F
:10278000ED91FC91DB0114964D915C9115976D9143
:102790007C910280F381E02D09940C94AA134F924E
:1027A0005F926F927F92AF92BF92CF92DF92EF9241
:1027B000FF920F931F93CF93DF93CDB7DEB729011D
:1027C0003A019B01AC012419350946095709898949
:1027D0009A89AB89BC89BC01CD016A197B098C0936
:1027E0009D090E941F1AA80197012419350946095D
:1027F00057090E94791ACA01B9016A0D7B1D8C1D07
:102800009D1DDF91CF911F910F91FF90EF90DF9071
:10281000CF90BF90AF907F906F905F904F90089552
:10282000FC01808191810C946516CF93DF93EC01BC
:1028300088819981009711F00E946516198218828B
:102840001D821C821B821A82DF91CF9108950F9303
:102850001F93CF93DF93EC018B016F5F7F4F8881D4
:1028600099810E94FD16009731F0998388831B831C
:102870000A8381E001C080E0DF91CF911F910F9129
:102880000895CF93DF93EC0188819981892B29F0FA
:102890008A819B818617970760F4CE010E942714D6
:1028A000882341F08C819D81892B19F4E881F9817D
:1028B000108281E0DF91CF910895EF92FF920F9304
:1028C0001F93CF93DF93EC017B018A01BA010E9431
:1028D0004114811104C0CE010E94151407C01D834C
:1028E0000C83B701888199810E94C11ACE01DF91C2
:1028F000CF911F910F91FF90EF900895FC011182ED
:10290000108213821282158214826115710551F0B2
:10291000FB0101900020E9F73197AF01461B570BEF
:102920000C945D140895CF93DF93EC01FB0186179F
:10293000970761F0608171816115710529F044810B
:1029400055810E945D1402C00E941514CE01DF91D2
:10295000CF910895FC011182108213821282158298
:1029600014820C949314CF93DF93EC0161157105DD
:1029700059F0FB0101900020E9F73197AF01461BA8
:10298000570B0E945D1402C00E941514CE01DF9106
:10299000CF9108950F931F93CF93DF93CDB7DEB7F9
:1029A00062970FB6F894DEBF0FBECDBF8C01CB018E
:1029B000F80111821082138212821582148250E073
:1029C000BE016F5F7F4F0E94C81ABE016F5F7F4FCD
:1029D000C8010E94B31462960FB6F894DEBF0FBE12
:1029E000CDBFDF91CF911F910F9108950F931F934A
:1029F000CF93DF93CDB7DEB7A2970FB6F894DEBFC3
:102A00000FBECDBF8C01CB01BA01F801118210823B
:102A1000138212821582148230E0AE014F5F5F4F45
:102A20000E94DE1ABE016F5F7F4FC8010E94B3147F
:102A3000A2960FB6F894DEBF0FBECDBFDF91CF9147
:102A40001F910F910895EF92FF920F931F93CF93D1
:102A5000DF93FC01248135816115710511F480E05B
:102A600019C041155105A9F07B01EC018A01020F43
:102A7000131FB8010E944114882389F328813981EA
:102A80008C819D81B701820F931F0E94C11A1D8303
:102A90000C8381E0DF91CF911F910F91FF90EF9018
:102AA0000895FB0144815581608171810C94231547
:102AB0006115710551F0FB0101900020E9F7319794
:102AC000AF01461B570B0C94231580E00895EF923D
:102AD000FF920F931F93CF93DF9300D000D0CDB719
:102AE000DEB77C01862F4AE08E010F5F1F4FB801D1
:102AF00090E00E94D31AF80101900020E9F7319785
:102B0000AF01401B510BB801C7010E9423150F9064
:102B10000F900F900F90DF91CF911F910F91FF9029
:102B2000EF900895CF93DF93EC01FB014481558131
:102B3000608171810E942315811103C0CE010E9422
:102B40001514CE01DF91CF910895CF93DF93EC015F
:102B50006115710561F0FB0101900020E9F73197E3
:102B6000AF01461B570B0E942315811103C0CE01F4
:102B70000E941514CE01DF91CF91089508950E940F
:102B800092120E94BE150E948A0FC0E0D0E00E94FF
:102B9000D30F2097E1F30E940000F9CF0C94D015D9
:102BA000CF93DF938230910510F482E090E0E091C2
:102BB000A202F091A30220E030E0C0E0D0E0309724
:102BC00011F14081518148175907C0F04817590742
:102BD00061F482819381209719F09B838A832BC0B3
:102BE0009093A3028093A20226C02115310519F00B
:102BF0004217530718F49A01BE01DF01EF0102806A
:102C0000F381E02DDCCF2115310509F1281B390BAB
:102C10002430310590F412968D919C911397611593
:102C2000710521F0FB019383828304C09093A3027A
:102C30008093A202FD01329644C0FD01E20FF31F12
:102C400081939193225031092D933C933AC0209166
:102C5000A0023091A102232B41F420916C0030910D
:102C60006D003093A1022093A00220916A00309160
:102C70006B002115310541F42DB73EB740916E0030
:102C800050916F00241B350BE091A002F091A1023E
:102C9000E217F307A0F42E1B3F0B2817390778F033
:102CA000AC014E5F5F4F2417350748F04E0F5F1F92
:102CB0005093A1024093A0028193919302C0E0E05F
:102CC000F0E0CF01DF91CF9108950F931F93CF9341
:102CD000DF93009709F48CC0FC01329713821282B3
:102CE0000091A2021091A3020115110581F4208127
:102CF0003181820F931F2091A0023091A1022817E9
:102D0000390779F5F093A102E093A00271C0D801D0
:102D100040E050E0AE17BF0750F412962D913C9161
:102D20001397AD012115310509F1D901F3CF9D01AB
:102D3000DA013383228360817181860F971F8217A6
:102D4000930769F4EC0128813981260F371F2E5F24
:102D50003F4F318320838A819B8193838283452BDC
:102D600029F4F093A302E093A20242C01396FC93CD
:102D7000EE931297ED01499159919E01240F351F51
:102D8000E217F30771F480819181840F951F0296F9
:102D900011969C938E938281938113969C938E932C
:102DA0001297E0E0F0E0D80112968D919C91139774
:102DB000009719F0F8018C01F6CF8D919C91980144
:102DC0002E5F3F4F820F931F2091A0023091A102EE
:102DD0002817390769F4309729F41092A30210924A
:102DE000A20202C0138212821093A1020093A002D9
:102DF000DF91CF911F910F9108956F927F928F92E3
:102E00009F92AF92BF92CF92DF92EF92FF920F9379
:102E10001F93CF93DF93EC01009789F4CB01DF91EF
:102E2000CF911F910F91FF90EF90DF90CF90BF90C7
:102E3000AF909F908F907F906F900C94D015FC0175
:102E4000E60FF71F9C0122503109E217F30708F43F
:102E5000ACC0D9010D911C91119706171707B0F05E
:102E60000530110508F49FC0C8010497861797071D
:102E700008F499C002501109061B170B0193119316
:102E80006D937C93CF010E9465168DC05B01A01AE3
:102E9000B10A4C01800E911EA091A202B091A30232
:102EA00040E050E0E12CF12C109709F44AC0A8153D
:102EB000B905D1F56D907C901197630182E0C80E41
:102EC000D11CCA14DB0480F1A3014A195B096A0111
:102ED00082E0C80ED11C1296BC9012971396AC914A
:102EE000B5E0CB16D10440F0B282A3835183408376
:102EF000D9016D937C930AC00E5F1F4FC301800FF1
:102F0000911FF90191838083EB2DFA2FE114F104D5
:102F100031F0D7011396FC93EE93129744C0F093CF
:102F2000A302E093A2023FC08D919C911197481794
:102F3000590708F4AC017D0112960D90BC91A02DAB
:102F4000B3CF8091A0029091A10288159905E1F478
:102F500046175707C8F480916A0090916B0000975C
:102F600041F48DB79EB740916E0050916F00841B65
:102F7000950BE817F907C8F4F093A102E093A002BB
:102F8000F901718360830FC0CB010E94D0157C01D1
:102F9000009759F0A801BE010E94B81ACE010E9404
:102FA0006516C70104C0CE0102C080E090E0DF9149
:102FB000CF911F910F91FF90EF90DF90CF90BF9036
:102FC000AF909F908F907F906F9008955058BB273F
:102FD000AA270E94FE170C9478190E946A1938F0EB
:102FE0000E94711920F039F49F3F19F426F40C94D3
:102FF00067190EF4E095E7FB0C946119E92F0E9424
:10300000891958F3BA17620773078407950720F0E8
:1030100079F4A6F50C94AB190EF4E0950B2EBA2FAB
:10302000A02D0B01B90190010C01CA01A0011124CE
:10303000FF27591B99F0593F50F4503E68F11A167A
:10304000F040A22F232F342F4427585FF3CF46950B
:1030500037952795A795F0405395C9F77EF41F162D
:10306000BA0B620B730B840BBAF09150A1F0FF0FF7
:10307000BB1F661F771F881FC2F70EC0BA0F621FE3
:10308000731F841F48F4879577956795B795F795D3
:103090009E3F08F0B0CF9395880F08F09927EE0F68
:1030A0009795879508950E943D1908F481E0089549
:1030B0000E946C180C9478190E94711958F00E94A3
:1030C0006A1940F029F45F3F29F00C9461195111FD
:1030D0000C94AC190C9467190E94891968F3992310
:1030E000B1F3552391F3951B550BBB27AA27621704
:1030F0007307840738F09F5F5F4F220F331F441F11
:10310000AA1FA9F335D00E2E3AF0E0E832D0915044
:103110005040E695001CCAF72BD0FE2F29D0660F31
:10312000771F881FBB1F261737074807AB07B0E874
:1031300009F0BB0B802DBF01FF2793585F4F3AF07A
:103140009E3F510578F00C9461190C94AC195F3FC7
:10315000E4F3983ED4F3869577956795B795F79500
:103160009F5FC9F7880F911D9695879597F90895E8
:10317000E1E0660F771F881FBB1F62177307840784
:10318000BA0720F0621B730B840BBA0BEE1F88F793
:10319000E09508950E94D1186894B1110C94AC196F
:1031A00008950E94911988F09F5798F0B92F992798
:1031B000B751B0F0E1F0660F771F881F991F1AF022
:1031C000BA95C9F714C0B13091F00E94AB19B1E0C3
:1031D00008950C94AB19672F782F8827B85F39F0C2
:1031E000B93FCCF3869577956795B395D9F73EF4BB
:1031F00090958095709561957F4F8F4F9F4F089563
:10320000E89409C097FB3EF4909580957095619580
:103210007F4F8F4F9F4F9923A9F0F92F96E9BB2736
:103220009395F695879577956795B795F111F8CFB2
:10323000FAF4BB0F11F460FF1BC06F5F7F4F8F4F1D
:103240009F4F16C0882311F096E911C0772321F013
:103250009EE8872F762F05C0662371F096E8862FAB
:1032600070E060E02AF09A95660F771F881FDAF702
:10327000880F9695879597F90895990F0008550F2F
:10328000AA0BE0E8FEEF16161706E807F907C0F0EC
:1032900012161306E407F50798F0621B730B840BF4
:1032A000950B39F40A2661F0232B242B252B21F4CE
:1032B00008950A2609F4A140A6958FEF811D811D6E
:1032C000089597F99F6780E870E060E008959FEFA8
:1032D00080EC089500240A941616170618060906AD
:1032E000089500240A94121613061406050608957C
:1032F000092E0394000C11F4882352F0BB0F40F404
:10330000BF2B11F460FF04C06F5F7F4F8F4F9F4F43
:10331000089557FD9058440F551F59F05F3F71F0C5
:103320004795880F97FB991F61F09F3F79F087952C
:103330000895121613061406551FF2CF4695F1DFB5
:1033400008C0161617061806991FF1CF8695710545
:10335000610508940895E894BB2766277727CB0179
:1033600097F908950E94C5190C9478190E946A195A
:1033700038F00E94711920F0952311F00C94611916
:103380000C94671911240C94AC190E94891970F3DC
:10339000959FC1F3950F50E0551F629FF001729FFA
:1033A000BB27F00DB11D639FAA27F00DB11DAA1F09
:1033B000649F6627B00DA11D661F829F2227B00D56
:1033C000A11D621F739FB00DA11D621F839FA00DE1
:1033D000611D221F749F3327A00D611D231F849F31
:1033E000600D211D822F762F6A2F11249F57504088
:1033F0009AF0F1F088234AF0EE0FFF1FBB1F661F03
:10340000771F881F91505040A9F79E3F510580F0CB
:103410000C9461190C94AC195F3FE4F3983ED4F31B
:10342000869577956795B795F795E7959F5FC1F76F
:10343000FE2B880F911D9695879597F90895DB01CE
:103440008F939F930E949E1ABF91AF91A29F800D70
:10345000911DA39F900DB29F900D11240895AA1B5A
:10346000BB1B51E107C0AA1FBB1FA617B70710F06F
:10347000A61BB70B881F991F5A95A9F780959095A1
:10348000BC01CD01089597FB072E16F4009407D0D8
:1034900077FD09D00E942F1A07FC05D03EF49095C5
:1034A00081959F4F0895709561957F4F0895A1E292
:1034B0001A2EAA1BBB1BFD010DC0AA1FBB1FEE1FAE
:1034C000FF1FA217B307E407F50720F0A21BB30BF9
:1034D000E40BF50B661F771F881F991F1A9469F775
:1034E00060957095809590959B01AC01BD01CF01D1
:1034F0000895052E97FB1EF400940E94901A57FD24
:1035000007D00E94571A07FC03D04EF40C94901A6F
:1035100050954095309521953F4F4F4F5F4F0895FF
:1035200090958095709561957F4F8F4F9F4F08952F
:10353000EE0FFF1F0590F491E02D09940E94A91A47
:10354000A59F900DB49F900DA49F800D911D1124F7
:103550000895A29FB001B39FC001A39F700D811D6C
:103560001124911DB29F700D811D1124911D08958C
:10357000FB01DC0102C001900D9241505040D8F790
:103580000895FB01DC0101900D920020E1F7089500
:103590004532510520F4423010F00C94D31AFB014F
:1035A0001082CB010895BB274A3031F4992322F4CD
:1035B000BDE2909581959F4F0C941B1B25323105E0
:1035C00020F4223010F00C94E91AFA011082CA019A
:1035D0000895BB272A3051F4992342F4BDE2909517
:1035E0008095709561957F4F8F4F9F4F0C94F91A7E
:1035F000BB27FA01A62F6217710581059105330BD0
:1036000030FB66F0AA27660F771F881F991FAA1F35
:10361000A21710F0A21B63953850A9F7A05DAA333A
:1036200008F0A95DA19336F7B111B1931082CA01D8
:103630000C94341BBB27FB015527AA27880F991F21
:10364000AA1FA41710F0A41B83955051B9F7A05DD1
:10365000AA3308F0A95DA193009779F7B111B1934E
:103660001192CB010C94341BDC01FC01672F71918A
:103670007723E1F7329704C07C916D937083629158
:10368000AE17BF07C8F3089513E0CAE8D3E004C03B
:10369000FE010E94981A2196CB38D107C9F7F894F9
:0236A000FFCF5A
:1036A200000002CB11CB11CB11010000A40280005B
:1036B2001B021A0419082D002E00300053494E0037
:1036C20049534157005243544700454347004E4F28
:1036D200490054524E4700487A00413A00562000B1
:1036E2004F3A00443A002520004241545445525971
:1036F2003A20002500440045004853002A003E00BD
:0A3702003F0000000000C5117F1316
:103E000001C0A9C011248FE594E09EBF8DBF84B787
:103E100014BE982F9D7009F0CCD085E08EBD82E055
:103E20008BB988E18AB986E880BD85E189B98EE0E1
:103E3000ADD0B89A24E08CE39BEF54E041E09DBD07
:103E40008CBD58BF08B602FEFDCF38B3342738BB4F
:103E5000A8952150A1F7C0E0D0E091D08134B1F411
:103E60008ED0182F97D0123811F482E00DC011387F
:103E700051F486E009C0853709F065C08BD08EE12A
:103E80007AD084E978D083E076D062C0823411F4AD
:103E900084E103C0853419F485E084D059C08535A8
:103EA00041F46DD0C82F6BD0D0E0D82BCC0FDD1FE4
:103EB0004EC0863521F484E075D080E0E5CF8436AD
:103EC00091F55DD05CD0D82E5AD0F82E00E610E0E7
:103ED00080E6D80E54D0F80181938F01DE12FACF1C
:103EE00059D0F5E4FF1201C0FFCF40E050E063E09D
:103EF000CE0131D07E0100E610E0F80140810E5F76
:103F00001F4F3196808150E0582B61E0C70123D0CC
:103F1000F2E0EF0EF11CD012F0CF40E050E065E08F
:103F2000CE0119D015C0843709F0A5CF28D027D0ED
:103F3000F82E25D02FD08E01F80185918F011BD04E
:103F4000FA94D1F705C0813511F488E01FD022D052
:103F500080E111D082CFFC010A0167BFE8951124EE
:103F600007B600FCFDCF667029F0452B19F481E1FE
:103F700087BFE89508955D9BFECF8CB908955F9B40
:103F8000FECF5C9901C0A8958CB1089598E191BDD0
:103F900081BD0895F4DF803219F088E0F7DFFFCFAC
:103FA00084E1E9CFCF93C82FEADFC150E9F7CF9181
:0E3FB000F1CF282E80E0EADFE0E0FF27099441
:023FFE000206B9
:0400000300003E00BB
:00000001FF
