:100000000C948C030C9492120C94B9120C94B403BB
:100010000C94B4030C94B4030C94B4030C94B40384
:100020000C94B4030C94B4030C94B4030C94E01239
:100030000C94B4030C944D150C947F150C94B403DC
:100040000C94B4030C94B4030C94B4030C94B40354
:100050000C94B403C904CC04CF04D204D504D8044E
:10006000DB04960898089A089C08A208A008A4082F
:10007000A4089E08C50EC80ECB0ECE0ED20ED50E0D
:10008000D80ECB0FE70FF70F0310C00F1D102C1069
:100090002C1010100A0E2D73C440AA8FDDF36B973D
:1000A000B98D7757E352933F2507995F8B37307BA4
:1000B0003A89C6AE4E58E44B4805D6F25C44EFF898
:1000C00069F692561D96AB2F8835F53683FC8E6007
:1000D000E0DAA85BDF7E4D3B38912BFA21C2230D7D
:1000E0002ECE3CB60332ED86E60F556A34B8704525
:1000F000499B76BC185A414628FD2CB0EAB2DE6511
:10010000BB1059F19DB729D4EB42856F39D52690A4
:100110007FA7E8D998C18C1162AD81660C5D190189
:100120001EC887E12AD224D143E74F68C0AF5E9E44
:1001300084E250CB1AC3B47404AC64A013D331006E
:100140009CFE4AB378153EEE947C1C72A1209F95CC
:10015000CF3D82B5BD54A6476E75C71BD70916F0B3
:100160001202B1064CCDA9A26CA561CA7D1F22174F
:1001700014C5D86D8AF751A3FBF463BF79C927EC86
:100180007A9ABE80FFE5BACC0BDBDCF967E9A408FC
:10019000D0713353494A4B4B4A494949494847452D
:1001A00044434343444443413E3D3B39383737366B
:1001B0003636373737373737363533323131343DE6
:1001C0004D6584A9CFEEFFFEEAC69A6D4425110560
:1001D0000001060D141C242D34393D404142434496
:1001E000444546474747474747474748484849499E
:1001F0004A4B4B4C4D4E4F505152535456585B5DE9
:1002000060626466686B6D707376797B7D7E7F7FDC
:100210007F7F7F7E7D7C797774716D6966625F5CBC
:10022000595754514F4D4C4B4A4948464544434316
:100230004344444445454545454545464748494965
:100240004A4A4B4B4B4B4B4B4A4A49494949484810
:10025000484747474747474746464645454545453A
:10026000464646454444434343434242424141415A
:10027000414141414140403F3F4040414141414176
:100280004141404040404040404041414142434460
:100290004547484900020406080A0C0E10121416BD
:1002A000181A1C1E20222426282A2C2E30323436DE
:1002B000383A3C3E40424446484A4C4E50525456CE
:1002C000585A5C5E60626466686A6C6E70727476BE
:1002D000787A7C7E80828486888A8C8E90929496AE
:1002E000989A9C9EA0A2A4A6A8AAACAEB0B2B4B69E
:1002F000B8BABCBEC0C2C4C6C8CACCCED0D2D4D68E
:10030000D8DADCDEE0E2E4E6E8EAECEEF0F2F4F67D
:10031000F8FAFCFEFFFDFBF9F7F5F3F1EFEFEBE97F
:10032000E7E5E3E1DFDDDBD9D7D5D3D1CFCFCBC94B
:10033000C7C5C3C1BFBDBBB9B7B5B3B1AFAFABA93B
:10034000A7A5A3A19F9D9B99979593918F8F8B892B
:10035000878583817F7D7B79777573716F6F6B691B
:10036000676563615F5D5B59575553514F4F4B490B
:10037000474543413F3D3B39373533312F2F2B29FB
:10038000272523211F1D1B19171513110F0F0B09EB
:1003900007050301FFFEFDFCFBFAF9F8F7F6F5F49B
:1003A000F3F2F1F0EFEEEDECEBEAE9E8E7E6E5E495
:1003B000E3E2E1E0DFDEDDDCDBDAD9D8D7D6D5D485
:1003C000D3D2D1D0CFCECDCCCBCAC9C8C7C6C5C475
:1003D000C3C2C1C0BFBEBDBCBBBAB9B8B7B6B5B465
:1003E000B3B2B1B0AFAEADACABAAA9A8A7A6A5A455
:1003F000A3A2A1A09F9E9D9C9B9A99989796959445
:10040000939291908F8E8D8C8B8A89888786858434
:10041000838281807F7E7D7C7B7A79787776757424
:10042000737271706F6E6D6C6B6A69686766656414
:10043000636261605F5E5D5C5B5A59585756555404
:10044000535251504F4E4D4C4B4A494847464544F4
:10045000434241403F3E3D3C3B3A393837363534E4
:10046000333231302F2E2D2C2B2A292827262524D4
:10047000232221201F1E1D1C1B1A191817161514C4
:10048000131211100F0E0D0C0B0A090807060504B4
:1004900003020100000102030405060708090A0B14
:1004A0000C0D0E0F101112131415161718191A1B14
:1004B0001C1D1E1F202122232425262728292A2B04
:1004C0002C2D2E2F303132333435363738393A3BF4
:1004D0003C3D3E3F404142434445464748494A4BE4
:1004E0004C4D4E4F505152535455565758595A5BD4
:1004F0005C5D5E5F606162636465666768696A6BC4
:100500006C6D6E6F707172737475767778797A7BB3
:100510007C7D7E7F808182838485868788898A8BA3
:100520008C8D8E8F909192939495969798999A9B93
:100530009C9D9E9FA0A1A2A3A4A5A6A7A8A9AAAB83
:10054000ACADAEAFB0B1B2B3B4B5B6B7B8B9BABB73
:10055000BCBDBEBFC0C1C2C3C4C5C6C7C8C9CACB63
:10056000CCCDCECFD0D1D2D3D4D5D6D7D8D9DADB53
:10057000DCDDDEDFE0E1E2E3E4E5E6E7E8E9EAEB43
:10058000ECEDEEEFF0F1F2F3F4F5F6F7F8F9FAFB33
:10059000FCFDFEFF808386898C8F9295989C9FA29C
:1005A000A5A8ABAEB0B3B6B9BCBFC1C4C7C9CCCEA9
:1005B000D1D3D5D8DADCDEE0E2E4E6E8EAECEDEF30
:1005C000F0F2F3F5F6F7F8F9FAFBFCFCFDFEFEFF9E
:1005D000FFFFFFFFFFFFFFFFFFFFFEFEFDFCFCFB39
:1005E000FAF9F8F7F6F5F3F2F0EFEDECEAE8E6E405
:1005F000E2E0DEDCDAD8D5D3D1CECCC9C7C4C1BFE6
:10060000BCB9B6B3B0AEABA8A5A29F9C9895928F8B
:100610008C898683807C797673706D6A6763605D90
:100620005A5754514F4C494643403E3B383633317C
:100630002E2C2A272523211F1D1B191715131210D5
:100640000F0D0C0A09080706050403030201010047
:10065000000000000000000000000101020303048C
:1006600005060708090A0C0D0F1012131517191BA0
:100670001D1F212325272A2C2E313336383B3E409F
:100680004346494C4F5154575A5D6063676A6D70D9
:100690007376797C0000000100000000000000007B
:1006A000040300060000000000000000000000003D
:1006B000000000000102040810204080010204082C
:1006C000102040800102040810204080010204082C
:1006D000102040800202020202020202040404040A
:1006E00004040404030303030303030301010101DE
:1006F0000101010100003900360033003000000024
:100700003B0038003500320000003A00370034006A
:1007100031009410AF15BC1011241FBECFE5D8E0F6
:10072000DEBFCDBF10E0A0E6B0E0EEE6FCE302C025
:1007300005900D92A63FB107D9F723E0A6EFB0E0F0
:1007400001C01D92AD36B207E1F713E0CBE8D3E06C
:1007500004C02197FE010E94761DC938D107C9F750
:100760000E949D180C942A1E0C9400004F925F92D8
:100770006F927F928F929F92AF92BF92CF92DF92B1
:10078000EF92FF920F931F93CF93DF93CDB7DEB716
:100790002A970FB6F894DEBF0FBECDBF5C0169018A
:1007A0007A0169EE70E00E945C17F7FE0DC0F094CC
:1007B000E094D094C094C11CD11CE11CF11C66E7EC
:1007C00070E0C5010E9436182801012E000C660851
:1007D0007708C701B601A30192010E94571D2F831C
:1007E000388749875A872AE04F81588569857A85F5
:1007F000CE0101960E94D417BE016F5F7F4FC501E5
:100800000E942F18CE0101960E94EE1602301105AB
:100810000CF45AC068E770E0C5010E9436182F81B9
:10082000388549855A85C301B2010E94FD1CC61A4C
:10083000D70AE80AF90A812C912C2AE030E08FEFE0
:10084000881A980AC801B9010E94211D8B016230E3
:100850007105ACF7A701960100E010E08AE0482E90
:10086000512C612C712C0F5F1F4FCA01B901A301DC
:1008700092010E94571D12161306140615069CF3CA
:10088000712CC401801B910B8C01872D072C000C4F
:10089000990B801791073CF46AE770E0C5010E944C
:1008A00036187394F2CF2AE0B701A601CE01019663
:1008B0000E94D417BE016F5F7F4FC5010E942F18A1
:1008C000CE0101960E94EE16C5012A960FB6F89445
:1008D000DEBF0FBECDBFDF91CF911F910F91FF9073
:1008E000EF90DF90CF90BF90AF909F908F907F90D0
:1008F0006F905F904F900895CF92DF92EF92FF92AA
:10090000CF93DF93EB01842F90E02AE1429FF00127
:100910001124EC5FFE4F2581462FE62FFD2F3E2F41
:10092000341B321710F41192FACF3AE1389FF001DC
:10093000399FF00D1124EC5FFE4F6081718182813F
:10094000938130E0C20FD31F2AE0C22ED12CE12CBC
:10095000F12C16161706180619064CF42197A70154
:1009600096010E94571D6883B901CA01F2CFDF9139
:10097000CF91FF90EF90DF90CF900895CF93DF93CA
:10098000EC0127303105E0F4F901E65DFF4F0C94EE
:10099000761D6CE770E011C061E870E00EC060E8A1
:1009A00070E00BC065E870E008C06AE870E005C060
:1009B0006EE870E002C062E970E0CE010E945C1750
:1009C000CE01DF91CF910895EF92FF920F931F9385
:1009D000CF93DF93CDB7DEB72C970FB6F894DEBF79
:1009E0000FBECDBF7C0104E011E0F8018081918150
:1009F000A281B381418D608D8BEA92E00E947A11D1
:100A0000F8012081318142815381B701CE010796DF
:100A10000E94BE04BE01695F7F4FCE0101960E9415
:100A200088176BEA70E0CE0101960E948318BC0122
:100A30008BEA92E00E941A16CE0101960E94EE16F1
:100A4000CE0107960E94EE162C960FB6F894DEBFE4
:100A50000FBECDBFDF91CF911F910F91FF90EF900F
:100A60000895EF92FF921F93CF93DF93CDB7DEB738
:100A70002C970FB6F894DEBF0FBECDBF7C0140911E
:100A80003701609136018BEA92E00E947A116BEA9D
:100A900070E0CE0107960E945C1780911E01909134
:100AA0001F01A0912001B0912101B7FD42C0D701E3
:100AB0001A966D917C911B9741E0C7010E947C04BE
:100AC00010E080912301181770F4D7011A96ED9168
:100AD000FC911B97E10FF11D6081CE0107960E94EA
:100AE00045181F5FEECFBE01695F7F4FCE010196B3
:100AF0000E94881767E970E0CE0101960E94831872
:100B0000BC018BEA92E00E941A16CE0101960E9467
:100B1000EE16CE0107960E94EE162C960FB6F894AC
:100B2000DEBF0FBECDBFDF91CF911F91FF90EF9041
:100B3000089566E770E0CE0107960E949117B7CF3F
:100B4000CF93DF9300D000D000D0CDB7DEB76AE9F5
:100B500070E0CE0101960E945C178091380190915F
:100B60003901A0913A01B0913B010197A105B1056E
:100B700031F46CE970E0CE0101960E94911740912A
:100B80005101609150018BEA92E00E947A11BE01FE
:100B90006F5F7F4F8BEA92E00E941A16CE0101969A
:100BA0000E94EE1626960FB6F894DEBF0FBECDBF9C
:100BB000DF91CF910895EF92FF920F931F93CF9300
:100BC000DF93CDB7DEB72C970FB6F894DEBF0FBE1C
:100BD000CDBF7C0140916B0160916A018BEA92E08C
:100BE0000E947A116EE970E0CE0107960E945C17B0
:100BF000209152013091530140915401509155017F
:100C00000091660110E0B701CE0101960E94B60383
:100C1000BE016F5F7F4FCE0107960E942F18CE0155
:100C200001960E94EE16BE01695F7F4FCE010196CC
:100C30000E94881761EA70E0CE0101960E94831835
:100C4000BC018BEA92E00E941A16CE0101960E9426
:100C5000EE16CE0107960E94EE162C960FB6F8946B
:100C6000DEBF0FBECDBFDF91CF911F910F91FF90DF
:100C7000EF900895EF92FF920F931F93CF93DF931E
:100C8000CDB7DEB72C970FB6F894DEBF0FBECDBF41
:100C90007C0140918501609184018BEA92E00E9481
:100CA0007A1164EA70E0CE0107960E945C172091E9
:100CB000D4013091D5014091D6015091D7010091D6
:100CC000E80110E0B701CE0101960E94B603BE0113
:100CD0006F5F7F4FCE0107960E942F18CE010196BD
:100CE0000E94EE16BE01695F7F4FCE0101960E9401
:100CF000881761EA70E0CE0101960E948318BC015A
:100D00008BEA92E00E941A16CE0101960E94EE161E
:100D1000CE0107960E94EE162C960FB6F894DEBF11
:100D20000FBECDBFDF91CF911F910F91FF90EF903C
:100D30000895EF92FF921F93CF93DF93CDB7DEB765
:100D40002C970FB6F894DEBF0FBECDBF7C0140914B
:100D50009F0160919E018BEA92E00E947A116BEAFA
:100D600070E0CE0107960E945C17809186019091F9
:100D70008701A0918801B0918901B7FD42C0D701D8
:100D80001C966D917C911D9745E0C7010E947C04E3
:100D900010E080918B01181770F4D7011C96ED912B
:100DA000FC911D97E10FF11D6081CE0107960E9415
:100DB00045181F5FEECFBE01695F7F4FCE010196E0
:100DC0000E94881767E970E0CE0101960E9483189F
:100DD000BC018BEA92E00E941A16CE0101960E9495
:100DE000EE16CE0107960E94EE162C960FB6F894DA
:100DF000DEBF0FBECDBFDF91CF911F91FF90EF906F
:100E0000089566E770E0CE0107960E949117B7CF6C
:100E1000EF92FF920F931F93CF93DF93CDB7DEB77F
:100E20002C970FB6F894DEBF0FBECDBF7C0140916A
:100E30008501609184018BEA92E00E947A1167EA51
:100E400070E0CE0107960E945C1720916C013091F2
:100E50006D0140916E0150916F010091800110E091
:100E6000B701CE0101960E94B603BE016F5F7F4FAE
:100E7000CE0107960E942F18CE0101960E94EE1611
:100E8000BE01695F7F4FCE0101960E9488176AEA12
:100E900070E0CE0101960E948318BC018BEA92E0BB
:100EA0000E941A16CE0101960E94EE16CE010796F8
:100EB0000E94EE162C960FB6F894DEBF0FBECDBF83
:100EC000DF91CF911F910F91FF90EF900895DC017A
:100ED0001196EC91E7FD13C0BAE1EB02F001112489
:100EE000E45EFE4F6081615041818BEA92E00E9496
:100EF0007A116BEA70E08BEA92E00C942816089560
:100F00001F93CF93DF93EC010E9467071091A0011C
:100F10008AE11802F0011124E45EFE4F6081615005
:100F200041818BEA92E00E947A11BE016D5F7F4F92
:100F30008BEA92E00E941A161983DF91CF911F91DC
:100F400008950F931F93CF93DF93C091A001FC01ED
:100F50008185882359F0FAE1CF9FE00111248E01A9
:100F60000C5F1E4FF8018689811108C08BEA92E060
:100F7000DF91CF911F910F910C945A128BEA92E05E
:100F80000E946112C45EDE4FF80164818881680F9F
:100F90006F5F49818BEA92E0DF91CF911F910F91B2
:100FA0000C947A11CF92DF92EF92FF921F93CF931E
:100FB000DF93CDB7DEB72C970FB6F894DEBF0FBE28
:100FC000CDBF14E1C12CD12C76018FE10E945A13C0
:100FD000BC01990F880B990B0E94E01B9B01AC018F
:100FE000C701B6010E94C51A6B017C01115069F757
:100FF00020E030E040EA51E40E94361B20E030E07F
:1010000040EA50E40E94901C20E030EC4FE754E4AA
:101010000E94361B2AE939E949E350E40E94C41AC8
:1010200020E030E048EC52E40E94901C28E939E9C5
:1010300049E95FE30E94361B6B017C0120E030E050
:10104000A9010E94311B87FD11C020E030E048EC6F
:1010500052E4C701B6010E94311B87FD0AC0C12CB2
:10106000D12C88ECE82E82E4F82E03C0C12CD12CC0
:10107000760141E061E08BEA92E00E947A11C701BB
:10108000B6010E94A81B4AE0CE0107960E94A8174D
:101090006DEA70E0CE0101960E945C17BE01695FA7
:1010A0007F4FCE0101960E94701867EB70E00E949E
:1010B0008318BC018BEA92E00E941A16CE010196B9
:1010C0000E94EE16CE0107960E94EE162C960FB6E1
:1010D000F894DEBF0FBECDBFDF91CF911F91FF907F
:1010E000EF90DF90CF900895CF93DF93613089F434
:1010F000EC0140E08BEA92E00E947A1169EB70E02B
:101100008BEA92E00E942816CE01DF91CF910C94D9
:10111000D207DF91CF910895462F50E04930510515
:1011200098F4FA01EF5CFF4F0C94761D0C94E404E4
:101130000C9431050C94A0050C94DB050C943A0634
:101140000C9499060C94080708956091A0010C94E2
:101150008C081F93CF93DF9300D000D000D0CDB781
:10116000DEB769EE70E0CE0101960E945C1710E1D7
:101170006BEA70E0CE0101960E9436181150C1F75B
:1011800040E060E08BEA92E00E947A11BE016F5F5E
:101190007F4F8BEA92E00E941A1641E060E08BEAF2
:1011A00092E00E947A11BE016F5F7F4F8BEA92E05E
:1011B0000E941A16CE0101960E94EE1626960FB6D0
:1011C000F894DEBF0FBECDBFDF91CF911F91089580
:1011D0000F931F93CF93DF93EC01E091A0018AE17D
:1011E000E89FF0011124EC5FFE4F6789CE010E9459
:1011F000740810E00AE1212F30E08091A101082E4F
:10120000000C990B28173907CCF4E091A001029F3C
:10121000D001039FB00D1124AC5FBE4F0E9FF001B3
:101220001124EC5FFE4F57969C918789981304C058
:10123000612FCE010E948C081F5FDDCFDF91CF911F
:101240001F910F9108951F93CF93DF93E091A00119
:101250002AE12E9FF0011124EC5FFE4F1789E091E7
:10126000A0012E9FF0011124EC5FFE4F3789FC0195
:101270002081321751F0EC018FEF8183CF010E9462
:10128000A908CE010E94E8081883DF91CF911F9131
:101290000895CF93DF93EC010E9423098A81811185
:1012A00003C0CE010E94A508CE010E948007CE0196
:1012B000DF91CF910C94A107FC018281680F6283BA
:1012C000228181819081821708F4928322812917DB
:1012D00008F4828382810895EF92FF920F931F9307
:1012E000CF93DF9300D000D000D0CDB7DEB78C0114
:1012F000E62EFC0162814AE050E08CEC92E00E9414
:101300009616FF24F394F092F8006E2DC8010E9407
:101310005C09F80182831281113059F1B0F012306A
:10132000D9F560EC70E0CE0101960E945C17BE0119
:101330006F5F7F4F89EF90E00E947117CE01019699
:101340000E94EE16F092FF0027C06CEB70E0CE0119
:1013500001960E945C17BE016F5F7F4F89EF90E09E
:101360000E947117CE0101960E94EE161092FF00A6
:1013700013C06EEB70E0CE0101960E945C17BE01B7
:101380006F5F7F4F89EF90E00E947117CE01019649
:101390000E94EE161093FF0086EF90E00E9449092C
:1013A00026960FB6F894DEBF0FBECDBFDF91CF916A
:1013B0001F910F91FF90EF90089561E080E690E01B
:1013C0000C946C09FC01628360E00C946C091F931F
:1013D000CF93DF93EC01ED810E2E000CFF0B10E09C
:1013E00061E070E080E090E02C81412F50E0DF016F
:1013F000A21BB10927FDB3959D0121503109421768
:10140000530744F4AAE0B0E09B01AC010E947C1DAC
:101410001F5FEACFDF91CF911F910895FC01948166
:10142000690F8581082E000C990B262F30E02817B4
:1014300039070CF060E064830895CF92DF92EF9259
:10144000FF92CF93FC01608971898289938997FF0C
:1014500007C090958095709561957F4F8F4F9F4FF6
:101460002AE030E040E050E00E94571DC1E08AE0F1
:10147000C82ED12CE12CF12C1216130614061506D9
:1014800044F4CF5FCA01B901A70196010E94571D1C
:10149000F3CF8C2FCF91FF90EF90DF90CF900895F6
:1014A0002F923F924F925F926F927F928F92AF9264
:1014B000CF92EF920F931F93CF93DF9300D000D082
:1014C000CDB7DEB73C0149835A836B837C83290106
:1014D000DC0114961C921C01B6E02B0E311C69EE47
:1014E00070E0C1010E945C1789819A81AB81BC8147
:1014F000F30180839183A283B383B201C1010E946F
:101500007117F80180819181A281B381F3018487F1
:101510009587A687B787F80184819581A681B781D1
:10152000F301808B918BA28BB38BE48AC58AA68A48
:10153000878AAD89BE898C91808F11968C91818F1D
:10154000C3010E941D0AF30185830F900F900F9035
:101550000F90DF91CF911F910F91EF90CF90AF90AF
:101560008F907F906F905F904F903F902F90089555
:101570002F923F924F925F926F927F928F92AF9293
:10158000BF92CF92DF92EF92FF920F931F93CF9370
:10159000DF9300D000D000D0CDB7DEB73C0182E0B1
:1015A00090E00E94AC187C01DD24D394FC01D08231
:1015B000118288E090E00E94AC188C01FC0110823E
:1015C00011821282138286E090E0A0E0B0E0848372
:1015D0009583A683B78369EE70E0CE0101960E94E1
:1015E0005C17FF92EF92812CA12CCC24C394EE24A3
:1015F000E3949E012F5F3F4F40E050E0BA01C301EA
:101600000E94500ACE0101960E94EE1682E090E000
:101610000E94AC187C0186E0B82EF701B0821182DE
:1016200088E090E00E94AC188C0184E190E0A0E09A
:10163000B0E0F80180839183A283B3838FE996E8B9
:10164000A1E0B0E084839583A683B78369EE70E060
:10165000CE0101960E945C17FF92EF92AA24A394F8
:10166000EE24E3949E012F5F3F4F48EE53E060E08D
:1016700070E0C3014A960E94500ACE0101960E9472
:10168000EE1682E090E00E94AC187C018FE0F7013A
:101690008083118288E090E00E94AC188C01FC01EC
:1016A0001082118212821382212C312C2101239469
:1016B000248235824682578269EE70E0CE0101961F
:1016C0000E945C17FF92EF92A12CEE24E3949E01FE
:1016D0002F5F3F4F40E050E0BA01C301C4960E9423
:1016E000500ACE0101960E94EE1682E090E00E9420
:1016F000AC187C01FC01D082D18288E090E00E948D
:10170000AC188C01FC01108211821282138282E3D8
:1017100090E0A0E0B0E084839583A683B78369EE70
:1017200070E0CE0101960E945C17FF92EF922AE0D2
:10173000E22E9E012F5F3F4F42E350E060E070E0F9
:10174000C301825B9F4F0E94500ACE0101960E9406
:10175000EE1682E090E00E94AC187C018AE0F7016E
:101760008083D18288E090E00E94AC188C01FC015B
:10177000208231824282538283E690E0A0E0B0E092
:1017800084839583A683B78369EE70E0CE010196CA
:101790000E945C17FF92EF92EE24E3949E012F5F6C
:1017A0003F4F42E350E060E070E0C30188599F4F33
:1017B0000E94500ACE0101960E94EE1682E090E04F
:1017C0000E94AC187C0185E0F7018083118288E0DB
:1017D00090E00E94AC188C0186E990E0A0E0B0E0B7
:1017E000F80180839183A283B38380EC98EDA7EA0C
:1017F000B0E084839583A683B78369EE70E0CE0161
:1018000001960E945C17FF92EF9288248394AA2489
:10181000A394EE24E3949E012F5F3F4F48EE53E0E4
:1018200060E070E0C3018E579F4F0E94500ACE01C6
:1018300001960E94EE16F301E456FF4F1082319696
:10184000B082D301A256BF4F86E0E0E7F0E00190FE
:101850000D928A95E1F7F301EC55FF4F83E0808309
:101860000FB6F894DEBF0FBECDBF26960FB6F89424
:10187000DEBF0FBECDBFDF91CF911F910F91FF90C3
:10188000EF90DF90CF90BF90AF908F907F906F9050
:101890005F904F903F902F900895FC0140815181BF
:1018A0006281738180899189A289B38984179507A0
:1018B000A607B70724F480839183A283B383408172
:1018C00051816281738184859585A685B785481786
:1018D00059076A077B0724F480839183A283B3832B
:1018E0000895FC0180819181A281B381462F660F0A
:1018F000550B660B770B480F591F6A1F7B1F84859A
:101900009585A685B785481759076A077B0784F030
:1019100080899189A289B38984179507A607B7079B
:101920003CF0CF0140835183628373830E944D0C4E
:101930000895CF92DF92EF92FF920F931F93CF9370
:10194000DF93EC01162F0E94E7099B01AC01C880D0
:10195000D980EA80FB80A12F110FBB0B0E94871D4D
:10196000DC01CB018C0D9D1DAE1DBF1D0C851D85A1
:101970002E853F8580179107A207B30784F0088959
:1019800019892A893B89081719072A073B073CF060
:1019900088839983AA83BB83CE010E944D0CDF917B
:1019A000CF911F910F91FF90EF90DF90CF9008950E
:1019B000EF92FF920F931F93CF93DF938C01FC0163
:1019C000EC55FF4F308120E082E3E82EF12CC62F4A
:1019D000D0E02317C1F027FD0DC0E22FEE0FFF0B63
:1019E000E00FF11FE156FF4F608170E0C7010E94D8
:1019F000211D01C062E3062E000C770B6C177D07DA
:101A000014F02F5FE6CF8FEF820FDF91CF911F9100
:101A10000F91FF90EF900895CF92DF92EF92FF9297
:101A20001F93CF93DF937C0110E06C0184EAC80E12
:101A3000D11CF6018081181790F49701210F311DF8
:101A4000210F311DE901C256DF4F60E088810E94FD
:101A50008C1360E088810E94C8131F5FEACFDF917A
:101A6000CF911F91FF90EF90DF90CF900895CF928C
:101A7000DF92EF92FF920F931F93CF93DF9300D0EB
:101A800000D0CDB7DEB78C019A01462F622F298393
:101A90003A834B837C830E94D80CE82FA4E6B0E005
:101AA00029813A814B817C81572F0E947C1D6B01DB
:101AB0007C01E7FD11C0EE0FFF0BC8018E0F9F1FC9
:101AC000FC01E156FF4F2081622F70E082E390E03D
:101AD0000E94211D262F01C022E3022E000C330B91
:101AE000440B550BC701B6010E94571DCA01B9012D
:101AF0000F900F900F900F90DF91CF911F910F914A
:101B0000FF90EF90DF90CF900895AF92BF92CF9269
:101B1000DF92EF92FF920F931F93CF9370E080E0DC
:101B200090E01F921F921F922FEF2F93A12CB12CA8
:101B3000650114E6E12EF12C00E010E020E030E039
:101B4000A9010E94AD16C62F61E08FE00E948C13A0
:101B500015BC85B5896685BDC3BD0F900F900F90EC
:101B60000F90CF911F910F91FF90EF90DF90CF904A
:101B7000BF90AF9008954E5C5F4F6F4F7F4F642FC3
:101B80000C94850DFC01E456FF4F30812AE1DC0105
:101B9000239FA00DB11D112456963C91332351F083
:101BA00030813081239F800D911D11240E940E0AE7
:101BB00081E008958FEF0895161614F03FEF01C0ED
:101BC00031E0FC01E456FF4F2081230F2083208168
:101BD000DC01A356BF4F4C9150E0822F90E0841758
:101BE00095070CF01082808181E0089520E030E0BC
:101BF000DC01B3954D915C911197240F351FE32FB4
:101C0000FF27E80FF91F408145BBF4CF89EA91E037
:101C10000E94F60DCB01BA010E94E01B9B01AC01B2
:101C20006CEF79EE86EF92E40E94361B20E03FEFE6
:101C30004FE757E40E94901C20E030E040EA51E476
:101C40000E94901C20E030E040E85DE30E94901C80
:101C50000E94AF1BCB010895CF92DF92EF92FF92CB
:101C6000CF93DF93EC016A017B0161E08DE00E947C
:101C70008C131FBC1EBC1DBC1CBCB701A601CE0131
:101C80000E940A0E9BBD8ABD8FB580648FBD8EB544
:101C900088608EBD8EB581608EBDDF91CF91FF9043
:101CA000EF90DF90CF9008956130B1F4FC01EE57D2
:101CB000FF4F408151816281738189EA91E00E94E6
:101CC0002C0E60E088E10E948C1360E088E10E94A5
:101CD000C8138FEF84BB08951FBC1EBC14BA61E00B
:101CE00088E10E948C1360E088E10C94C81320E026
:101CF00030E0FB01E20FF31FE491DC01ED93CD0135
:101D00002F5F3F4F2115B1E03B0799F70895CF931F
:101D1000DF93462FFC019C013395C4E6D0E080811F
:101D2000849FC0011124BE010E940D1D6193E21722
:101D3000F307A9F7DF91CF910895382F292F962F18
:101D400080E064E670E00E94211DE32FF22F80E026
:101D500090E02FEF8617970710F4208301C01082C0
:101D600001963196811531E09307A1F708950F93FD
:101D70001F93CF93DF93EC01122F47305105E8F406
:101D8000FA01E65CFF4F0C94761D64E975E012C021
:101D900064E974E00FC064E973E00CC0602F0E9436
:101DA0009D0E0BC064E971E005C064E970E002C0FB
:101DB00064E972E0CE010E94770E612FCE01DF91BF
:101DC000CF911F910F910C94870ECF92DF92EF92DB
:101DD000FF920F931F93CF93DF9300D01F92CDB745
:101DE000DEB77C01162F642F49835A837B830E94C0
:101DF000D80C082FC7010E940C0D49815A817B81A4
:101E000007FD16C0802F880F990B8E0D9F1D6C014A
:101E10002EE9C20ED11C61E0F60180810E948C1374
:101E200060E0F60180810E94C8137B815A8149815C
:101E3000612FC7010E94370D862FF701E859FF4F28
:101E40000081118122813381F701408151816281BA
:101E50007381282F89EA91E00E94B70E0F900F90AE
:101E60000F90DF91CF911F910F91FF90EF90DF9036
:101E7000CF9008950F931F93CF93DF93C4E0D1E0E9
:101E80008F8D90E00E94AC1806EF10E0F801938768
:101E9000828780918B0190E00E94AC18F8019587B1
:101EA000848713BE20E042E060E18BEA92E00E946A
:101EB000951126E040E855E260E070E08CEC92E09D
:101EC0000E94E71462EC70E08CEC92E00E942E1607
:101ED000609162004AE050E08CEC92E00E9496161D
:101EE000C8010E9449096A8D7B8D8C8D9D8D24E1EE
:101EF00030E040E050E00E94571D3093AA0220934A
:101F0000A902409152015091530160915401709186
:101F10005501CE010E94E50E62E08FE00E948C1315
:101F200062E08AE00E948C1362E08BE00E948C13D6
:101F300060E0CE010E94540E42E050E068E870E19B
:101F400080E00E94701242E050E06DED79E081E0A7
:101F5000DF91CF911F910F910C9470120F931F93EB
:101F6000CF93DF93462F660F550B660B770B4930E7
:101F7000510508F071C0FA01EF5BFF4F0C94761D1C
:101F8000FC014081518162817381433051056105BB
:101F9000710509F061C0EC01FC01E25BFF4F40817B
:101FA0005181628173810E94370D862FFE01E859AD
:101FB000FF4F0081118122813381488159816A81DB
:101FC0007B81282F89EA91E00E94B70E45C0FC0171
:101FD000628D738D848D958D24E130E040E050E07A
:101FE0000E94571D3093AA022093A90235C0FC011C
:101FF00044A955A966A977A9642FDF91CF911F91B4
:102000000F910C94540EFC01E25BFF4F4081518113
:1020100062817381DF91CF911F910F910C94E50E36
:10202000FC01E053FF4F4081518162817381DF9158
:10203000CF911F910F910C94BB0DFC01EE57FF4FF8
:10204000408151816281738189EA91E0DF91CF9172
:102050001F910F910C942C0EDF91CF911F910F9136
:1020600008950F931F93CF93DF93EC018C010456D7
:102070001F4FF80190818AE1FE01899FE00DF11D5B
:1020800011249689F801992351F090819E01899F2E
:10209000200D311D1124C9010E94990C09C09081A5
:1020A0009E01899F200D311D1124C9010E94710CD0
:1020B000F8016081CE010E94AE0F81E0DF91CF91E7
:1020C0001F910F910895CF93DF93EC011092F800C8
:1020D0009A81913041F090F09230A1F484E091E047
:1020E0000E9431100FC084E091E00E94C20D8F3F2A
:1020F00049F462E0CE010E94E20904C084E091E06C
:102100000E94DC0D86EF90E0DF91CF910C9449099D
:102110008FE00E94F813892B11F061E001C06FEF8E
:1021200080E690E00C946310CF92EF920F93CF93E0
:10213000DF9387E0C82E96E0E92E05E024E041E039
:1021400060E08BEA92E00E943A1284E091E00E9403
:10215000B80AC6EFD0E08FEF888319821A826CEB41
:1021600070E089EF90E00E945C171986DF91CF91B3
:102170000F91EF90CF900895CF93DF9389EF90E088
:102180000E94EE16C0EAD1E06A97CE0106960E9440
:10219000EE1681E0C430D807B9F7DF91CF910895EA
:1021A000CF93DF93EC0160E08E810E94C81381E041
:1021B00090E00E942A1361E08E810E94C81381E0A2
:1021C00090E00E942A1360E08E810E94C81384E68A
:1021D00090E0DF91CF910C942A13CF92DF92EF928F
:1021E000FF920F931F93CF93DF937C016C0187E0E5
:1021F000C80ED11CC0E0D0E0062F10E0B8010C2EB4
:1022000002C0759567950A94E2F76170F6018191B5
:102210006F010E94C8132196C430D10579F7C70118
:10222000DF91CF911F910F91FF90EF90DF90CF90B2
:102230000C94D010CF92DF92EF92FF920F931F93E6
:10224000CF93DF937C016C0187E0C80ED11CC0E006
:10225000D0E0062F10E0B8010C2E02C075956795EE
:102260000A94E2F76170F60181916F010E94C81330
:102270002196C830D10579F7C701DF91CF911F9121
:102280000F91FF90EF90DF90CF900C94D0101F93A0
:10229000CF93DF93EC01162F642F8C810E94C8131B
:1022A0008D818F3F19F060E00E94C8138F85612FE8
:1022B00084FF06C0CE01DF91CF911F910C941A11BB
:1022C00070E084E0759567958A95E1F7CE010E94EC
:1022D000ED10612FCE01DF91CF911F910C94ED1085
:1022E00040E00C94471161E00E94701180ED97E08E
:1022F0000C942A13FC01443008F043E0838948170A
:1023000010F04FEF480FDF01A40FB11D54969C91C0
:10231000690F6068CF010C947011FC016089262F51
:102320002460208B6C600C947011EF92FF920F93DD
:102330001F93CF93DF93EC01423018F08F858860B4
:102340008F874B8B1C8A80E48D8B6E8B70E0605C7A
:102350007F4F6F8B222329F0413019F48F858460E1
:102360008F8761E08C810E948C138D818F3F19F0E3
:1023700061E00E948C1361E08E810E948C137E01CB
:1023800087E0E80EF11C00E010E08F8584FD03C0BB
:1023900084E090E002C088E090E0081719074CF450
:1023A00061E0F70181917F010E948C130F5F1F4F45
:1023B000ECCF80E593EC0E942A1360E08C810E94B0
:1023C000C81360E08E810E94C8138D818F3F19F081
:1023D00060E00E94C8136F8564FD1DC063E0CE01FC
:1023E0000E94ED1084E991E10E942A1363E0CE017E
:1023F0000E94ED1084E991E10E942A1363E0CE016E
:102400000E94ED1086E990E00E942A1362E0CE015E
:102410000E94ED1016C06062CE010E94701184E926
:1024200091E10E942A136F856062CE010E947011B3
:1024300086E990E00E942A136F856062CE010E94B7
:1024400070116F856062CE010E94701184E0888BEC
:10245000CE010E948D11CE010E94731182E0898B02
:1024600066E0CE01DF91CF911F910F91FF90EF9029
:102470000C947011CF92EF920F93FC011382128291
:1024800083ED90E09183808364838FEF858346831F
:1024900027830087E186C2861386148615861686F2
:1024A000178620E041E060E1CF010F91EF90CF90DF
:1024B0000C949511FC0160896E7F608B68600C94B0
:1024C0007011FC016089262F2160208B69600C94BB
:1024D000701141E00E94471181E090E00895089555
:1024E0008330F8F4E82FF0E0EE0FFF1FED59FF4FB7
:1024F00071836083882319F0813041F0089585B796
:102500008C7F482B45BF8BB780640AC085B7440FCA
:10251000551F440F551F837F482B45BF8BB78068DD
:102520008BBF08951F920F920FB60F9211242F9315
:102530003F934F935F936F937F938F939F93AF934B
:10254000BF93EF93FF93E0916300F09164000995CE
:10255000FF91EF91BF91AF919F918F917F916F917B
:102560005F914F913F912F910F900FBE0F901F9051
:1025700018951F920F920FB60F9211242F933F932D
:102580004F935F936F937F938F939F93AF93BF937B
:10259000EF93FF93E0916500F09166000995FF913C
:1025A000EF91BF91AF919F918F917F916F915F91CB
:1025B0004F913F912F910F900FBE0F901F90189544
:1025C0001F920F920FB60F9211242F933F938F9368
:1025D0009F93AF93BF938091C4029091C502A09145
:1025E000C602B091C7023091C30223E0230F2D37FA
:1025F00020F40196A11DB11D05C026E8230F029607
:10260000A11DB11D2093C3028093C4029093C50203
:10261000A093C602B093C7028091C8029091C902EC
:10262000A091CA02B091CB020196A11DB11D809369
:10263000C8029093C902A093CA02B093CB02BF9183
:10264000AF919F918F913F912F910F900FBE0F905F
:102650001F901895019739F0880F991F880F991FBF
:1026600002970197F1F70895789483B7826083BF4A
:1026700083B7816083BF83B7806483BF83B788607B
:1026800083BF89B7816089BF1EBC8EB582608EBD55
:102690008EB581608EBD8FB581608FBD85B584603C
:1026A00085BD85B5806485BD329A319A309A379A56
:1026B0001AB80895883028F0883110F0885101C088
:1026C0008FEF87702091690090E4299F9001112479
:1026D000822B87B9369A3699FECF84B125B190E026
:1026E000922B0895833049F018F4813089F00895D1
:1026F000843031F0863041F008958FB58F7702C075
:102700008FB58F7D8FBD089585B58F7D85BD08956B
:1027100083B78F7D83BF0895CF93DF9390E0FC0153
:10272000EC54F94F2491FC01EC52F94F8491882329
:1027300061F190E0880F991FFC01E85FF84FC591A7
:10274000D491FC01E250F94FA591B491611109C0F7
:102750009FB7F8948881209582238883EC912E235B
:102760000BC0623061F49FB7F8943881822F809556
:1027700083238883EC912E2B2C939FBF06C08FB7A9
:10278000F894E8812E2B28838FBFDF91CF91089595
:102790001F93CF93DF93282F30E0F901EC56F94FC8
:1027A0008491F901EC54F94FD491F901EC52F94FAD
:1027B000C491CC23C9F0162F81110E947213EC2F03
:1027C000F0E0EE0FFF1FE250F94FA591B4918FB7E3
:1027D000F894111105C09C91ED2FE095E92302C0FA
:1027E000EC91ED2BEC938FBFDF91CF911F9108956A
:1027F000CF93DF93282F30E0F901EC56F94F849105
:10280000F901EC54F94FD491F901EC52F94FC4910C
:10281000CC2391F081110E947213EC2FF0E0EE0FA7
:10282000FF1FEC50F94FA591B491EC91ED2381E09D
:1028300090E021F480E002C080E090E0DF91CF9151
:102840000895FC01918D228D892F90E0805C9F4F2F
:10285000821B91098F7399270895FC01918D828DB8
:10286000981731F0828DE80FF11D858D90E0089565
:102870008FEF9FEF0895FC01918D828D981761F085
:10288000828DDF01A80FB11D5D968C91928D9F5FA7
:102890009F73928F90E008958FEF9FEF089585EAE0
:1028A00095E1892B49F080E090E0892B29F00E9486
:1028B000A51581110C9400000895FC01848DDF01A1
:1028C000A80FB11DA35ABF4F2C91848D90E00196A3
:1028D0008F739927848FA689B7892C93A089B18992
:1028E0008C9180648C93938D848D981306C002889C
:1028F000F389E02D80818F7D80830895CF93DF93CE
:10290000EC01888D8823C9F0EA89FB89808185FDE7
:1029100005C0A889B9898C9186FD0FC00FB607FC48
:10292000F5CF808185FFF2CFA889B9898C9185FF89
:10293000EDCFCE010E945D14E7CFDF91CF910895D6
:10294000EF92FF920F931F93CF93DF93EC0181E0FF
:10295000888F9B8D8C8D981305C0E889F9898081BB
:1029600085FD24C0F62E0B8D10E00F5F1F4F0F73F7
:102970001127E02E8C8DE8120CC00FB607FCFACFA1
:10298000E889F989808185FFF5CFCE010E945D1429
:10299000F1CF8B8DFE01E80FF11DE35AFF4FF0825E
:1029A0000B8FEA89FB898081806207C0EE89FF89ED
:1029B0006083E889F98980818064808381E090E088
:1029C000DF91CF911F910F91FF90EF900895CF92DB
:1029D000DF92EF92FF921F93CF93DF93EC016A0196
:1029E0007B01122FE889F98982E080834115514EDD
:1029F00061057105B1F060E079E08DE390E0A70139
:102A000096010E94351DDA01C9010197A109B1099A
:102A1000B695A79597958795AC01411580E1580724
:102A2000A8F0E889F989108260E874E88EE190E006
:102A3000A70196010E94351DBA01A9014150510913
:102A4000610971097695679557954795EC85FD85E0
:102A50005083EE85FF854083188E1068EC89FD89D0
:102A60001083EA89FB89808180618083EA89FB8900
:102A7000808188608083EA89FB8980818068808387
:102A8000EA89FB8980818F7D8083DF91CF911F91BF
:102A9000FF90EF90DF90CF9008951F920F920FB6A6
:102AA0000F9211242F938F939F93EF93FF93E091B5
:102AB000DC02F091DD028081E091E202F091E3021C
:102AC00082FD12C090818091E5028F5F8F7320910B
:102AD000E602821751F0E091E502F0E0E453FD4F89
:102AE000958F8093E50201C08081FF91EF919F91C6
:102AF0008F912F910F900FBE0F901F9018951F92DE
:102B00000F920FB60F9211242F933F934F935F9321
:102B10006F937F938F939F93AF93BF93EF93FF93A5
:102B20008CEC92E00E945D14FF91EF91BF91AF9108
:102B30009F918F917F916F915F914F913F912F91D5
:102B40000F900FBE0F901F9018958CEC92E00E9492
:102B5000211421E0892B09F420E0822F0895ECEC68
:102B6000F2E01382128288EE93E0A0E0B0E084836A
:102B70009583A683B7838BED90E09183808380E477
:102B800090E09587848729E230E0378726872BE21B
:102B900030E0318B208B2AE230E0338B228B958B17
:102BA000848B8CE290E0978B868B118E128E138E25
:102BB000148E0895CF92DF92EF92FF920F931F939E
:102BC000CF93DF936C017A018B01C0E0D0E0CE158A
:102BD000DF0589F0D8016D918D01D601ED91FC9151
:102BE0000190F081E02DC6010995892B11F47E0139
:102BF00002C02196ECCFC701DF91CF911F910F91B9
:102C0000FF90EF90DF90CF9008956115710579F0F6
:102C1000FB0101900020E9F73197AF01461B570BEC
:102C2000DC01ED91FC910280F381E02D099480E0BC
:102C300090E00895DC01ED91FC91DB0114964D913B
:102C40005C9115976D917C910280F381E02D099440
:102C50000C94051667EE70E00C9405160F931F9305
:102C6000CF93DF93EC010E9405168C01CE010E94E8
:102C70002A16800F911FDF91CF911F910F91089518
:102C80004F925F926F927F92EF92FF920F931F93FA
:102C9000CF93DF93CDB7DEB7A1970FB6F894DEBF21
:102CA0000FBECDBF7C01FA01CB0119A2223008F47E
:102CB0002AE08E010F5D1F4F422E512C612C712C8A
:102CC000BF01A30192010E94351DF901CA01015003
:102CD00011096A3014F4605D01C0695CD8016C931D
:102CE000232B242B252B61F7B801C7010E94051661
:102CF000A1960FB6F894DEBF0FBECDBFDF91CF9186
:102D00001F910F91FF90EF907F906F905F904F9089
:102D100008952115310541F4DC01ED91FC910190FC
:102D2000F081E02D642F09940C9440160F931F93AB
:102D3000CF93DF93EC019A01462F50E060E070E002
:102D40000E9489168C01CE010E942A16800F911FC5
:102D5000DF91CF911F910F9108954F925F926F92E3
:102D60007F92AF92BF92CF92DF92EF92FF920F933A
:102D70001F93CF93DF93CDB7DEB729013A019B01B3
:102D8000AC01241935094609570989899A89AB8903
:102D9000BC89BC01CD016A197B098C099D090E947F
:102DA000FD1CA801970124193509460957090E94FD
:102DB000571DCA01B9016A0D7B1D8C1D9D1DDF9138
:102DC000CF911F910F91FF90EF90DF90CF90BF9028
:102DD000AF907F906F905F904F900895FC0180813D
:102DE00091810C944319CF93DF93EC0188819981F1
:102DF000009711F00E944319198218821D821C82CB
:102E00001B821A82DF91CF9108950F931F93CF9366
:102E1000DF93EC018B016F5F7F4F888199810E9466
:102E2000DB19009731F0998388831B830A8381E043
:102E300001C080E0DF91CF911F910F910895CF9352
:102E4000DF93EC0188819981892B29F08A819B810C
:102E50008617970760F4CE010E940517882341F07A
:102E60008C819D81892B19F4E881F981108281E0A0
:102E7000DF91CF910895EF92FF920F931F93CF931D
:102E8000DF93EC017B018A01BA010E941F178111B7
:102E900004C0CE010E94F31607C01D830C83B70146
:102EA000888199810E94A71DCE01DF91CF911F914A
:102EB0000F91FF90EF900895FC0111821082138210
:102EC0001282158214826115710551F0FB01019087
:102ED0000020E9F73197AF01461B570B0C943B17C5
:102EE0000895CF93DF93EC01FB018617970761F0FC
:102EF000608171816115710529F0448155810E94BD
:102F00003B1702C00E94F316CE01DF91CF910895C6
:102F1000FC011182108213821282158214820C9499
:102F20007117CF93DF93EC016115710559F0FB0127
:102F300001900020E9F73197AF01461B570B0E9423
:102F40003B1702C00E94F316CE01DF91CF91089586
:102F50000F931F93CF93DF93CDB7DEB762970FB672
:102F6000F894DEBF0FBECDBF8C01CB01F8011182FA
:102F70001082138212821582148250E0BE016F5FAC
:102F80007F4F0E94AE1DBE016F5F7F4FC8010E9440
:102F9000911762960FB6F894DEBF0FBECDBFDF91DA
:102FA000CF911F910F9108950F931F93CF93DF93AC
:102FB000CDB7DEB7A2970FB6F894DEBF0FBECDBF78
:102FC0008C01CB01BA01F8011182108213821282A6
:102FD0001582148230E0AE014F5F5F4F0E94C41D26
:102FE000BE016F5F7F4FC8010E949117A2960FB676
:102FF000F894DEBF0FBECDBFDF91CF911F910F912F
:103000000895EF92FF920F931F93CF93DF93FC01EC
:10301000248135816115710511F480E019C04115D5
:103020005105A9F07B01EC018A01020F131FB801C1
:103030000E941F17882389F3288139818C819D8103
:10304000B701820F931F0E94A71D1D830C8381E08F
:10305000DF91CF911F910F91FF90EF900895FB01A9
:1030600044815581608171810C940118611571054D
:1030700051F0FB0101900020E9F73197AF01461BA9
:10308000570B0C94011880E00895EF92FF920F9374
:103090001F93CF93DF9300D000D0CDB7DEB77C0174
:1030A000862F4AE08E010F5F1F4FB80190E00E940B
:1030B000B91DF80101900020E9F73197AF01401BDD
:1030C000510BB801C7010E9401180F900F900F908B
:1030D0000F90DF91CF911F910F91FF90EF90089586
:1030E000CF93DF93EC01FB014481558160817181B5
:1030F0000E940118811103C0CE010E94F316CE0177
:10310000DF91CF910895CF93DF93EC0161157105A5
:1031100061F0FB0101900020E9F73197AF01461BF8
:10312000570B0E940118811103C0CE010E94F316B3
:10313000CE01DF91CF91089508950E9434130E942B
:103140009C180E943A0FCFE4D4E10E94060E20970B
:10315000E1F30E944F14F9CF0C94AE18CF93DF9394
:103160008230910510F482E090E0E0916B03F091E1
:103170006C0320E030E0C0E0D0E0309711F14081F6
:10318000518148175907C0F04817590761F48281E7
:103190009381209719F09B838A832BC090936C03B3
:1031A00080936B0326C02115310519F04217530790
:1031B00018F49A01BE01DF01EF010280F381E02DD6
:1031C000DCCF2115310509F1281B390B24303105DD
:1031D00090F412968D919C9113976115710521F0D1
:1031E000FB019383828304C090936C0380936B03F1
:1031F000FD01329644C0FD01E20FF31F81939193CC
:10320000225031092D933C933AC0209169033091AB
:103210006A03232B41F420916C0030916D003093B0
:103220006A032093690320916A0030916B00211595
:10323000310541F42DB73EB740916E0050916F00BB
:10324000241B350BE0916903F0916A03E217F30741
:10325000A0F42E1B3F0B2817390778F0AC014E5F06
:103260005F4F2417350748F04E0F5F1F50936A03D6
:10327000409369038193919302C0E0E0F0E0CF01B5
:10328000DF91CF9108950F931F93CF93DF93009712
:1032900009F48CC0FC0132971382128200916B03F7
:1032A00010916C030115110581F420813181820F89
:1032B000931F2091690330916A032817390779F524
:1032C000F0936A03E093690371C0D80140E050E0D5
:1032D000AE17BF0750F412962D913C911397AD0194
:1032E0002115310509F1D901F3CF9D01DA013383AD
:1032F000228360817181860F971F8217930769F47B
:10330000EC0128813981260F371F2E5F3F4F318313
:1033100020838A819B8193838283452B29F4F093B8
:103320006C03E0936B0342C01396FC93EE931297E9
:10333000ED01499159919E01240F351FE217F307C2
:1033400071F480819181840F951F029611969C9350
:103350008E938281938113969C938E931297E0E0D3
:10336000F0E0D80112968D919C911397009719F077
:10337000F8018C01F6CF8D919C9198012E5F3F4F03
:10338000820F931F2091690330916A032817390730
:1033900069F4309729F410926C0310926B0302C009
:1033A0001382128210936A0300936903DF91CF9115
:1033B0001F910F9108956F927F928F929F92AF927B
:1033C000BF92CF92DF92EF92FF920F931F93CF9312
:1033D000DF93EC01009789F4CB01DF91CF911F912E
:1033E0000F91FF90EF90DF90CF90BF90AF909F90A4
:1033F0008F907F906F900C94AE18FC01E60FF71F32
:103400009C0122503109E217F30708F4ACC0D9013E
:103410000D911C91119706171707B0F00530110593
:1034200008F49FC0C80104978617970708F499C04D
:1034300002501109061B170B019311936D937C9396
:10344000CF010E9443198DC05B01A01AB10A4C0143
:10345000800E911EA0916B03B0916C0340E050E090
:10346000E12CF12C109709F44AC0A815B905D1F543
:103470006D907C901197630182E0C80ED11CCA1434
:10348000DB0480F1A3014A195B096A0182E0C80EDE
:10349000D11C1296BC9012971396AC91B5E0CB1646
:1034A000D10440F0B282A38351834083D9016D934C
:1034B0007C930AC00E5F1F4FC301800F911FF9015B
:1034C00091838083EB2DFA2FE114F10431F0D701C1
:1034D0001396FC93EE93129744C0F0936C03E09321
:1034E0006B033FC08D919C9111974817590708F4C1
:1034F000AC017D0112960D90BC91A02DB3CF8091AF
:10350000690390916A0388159905E1F446175707F6
:10351000C8F480916A0090916B00009741F48DB7D8
:103520009EB740916E0050916F00841B950BE81779
:10353000F907C8F4F0936A03E0936903F901718312
:1035400060830FC0CB010E94AE187C01009759F038
:10355000A801BE010E949E1DCE010E944319C70111
:1035600004C0CE0102C080E090E0DF91CF911F91B6
:103570000F91FF90EF90DF90CF90BF90AF909F9012
:103580008F907F906F9008955058BB27AA270E9474
:10359000DC1A0C94561C0E94481C38F00E944F1CE8
:1035A00020F039F49F3F19F426F40C94451C0EF4D6
:1035B000E095E7FB0C943F1CE92F0E94671C58F331
:1035C000BA17620773078407950720F079F4A6F508
:1035D0000C94891C0EF4E0950B2EBA2FA02D0B0134
:1035E000B90190010C01CA01A0011124FF27591B48
:1035F00099F0593F50F4503E68F11A16F040A22F4E
:10360000232F342F4427585FF3CF469537952795BE
:10361000A795F0405395C9F77EF41F16BA0B620BBD
:10362000730B840BBAF09150A1F0FF0FBB1F661F04
:10363000771F881FC2F70EC0BA0F621F731F841F47
:1036400048F4879577956795B795F7959E3F08F06D
:10365000B0CF9395880F08F09927EE0F979587952F
:1036600008950E941B1C08F481E008950E944A1BE3
:103670000C94561C0E944F1C58F00E94481C40F0AD
:1036800029F45F3F29F00C943F1C51110C948A1CC3
:103690000C94451C0E94671C68F39923B1F35523D1
:1036A00091F3951B550BBB27AA2762177307840755
:1036B00038F09F5F5F4F220F331F441FAA1FA9F3EB
:1036C00035D00E2E3AF0E0E832D091505040E695D9
:1036D000001CCAF72BD0FE2F29D0660F771F881F3A
:1036E000BB1F261737074807AB07B0E809F0BB0B2D
:1036F000802DBF01FF2793585F4F3AF09E3F510541
:1037000078F00C943F1C0C948A1C5F3FE4F3983EC5
:10371000D4F3869577956795B795F7959F5FC9F729
:10372000880F911D9695879597F90895E1E0660FAA
:10373000771F881FBB1F621773078407BA0720F023
:10374000621B730B840BBA0BEE1F88F7E09508958C
:103750000E94AF1B6894B1110C948A1C08950E94BA
:103760006F1C88F09F5798F0B92F9927B751B0F088
:10377000E1F0660F771F881F991F1AF0BA95C9F7F5
:1037800014C0B13091F00E94891CB1E008950C94EE
:10379000891C672F782F8827B85F39F0B93FCCF3A1
:1037A000869577956795B395D9F73EF49095809572
:1037B000709561957F4F8F4F9F4F0895E89409C092
:1037C00097FB3EF490958095709561957F4F8F4F54
:1037D0009F4F9923A9F0F92F96E9BB279395F6956A
:1037E000879577956795B795F111F8CFFAF4BB0FE8
:1037F00011F460FF1BC06F5F7F4F8F4F9F4F16C04C
:10380000882311F096E911C0772321F09EE8872FD5
:10381000762F05C0662371F096E8862F70E060E091
:103820002AF09A95660F771F881FDAF7880F96950A
:10383000879597F90895990F0008550FAA0BE0E8AE
:10384000FEEF16161706E807F907C0F01216130662
:10385000E407F50798F0621B730B840B950B39F4A2
:103860000A2661F0232B242B252B21F408950A2608
:1038700009F4A140A6958FEF811D811D089597F948
:103880009F6780E870E060E008959FEF80EC089506
:1038900000240A941616170618060906089500242F
:1038A0000A9412161306140605060895092E0394A9
:1038B000000C11F4882352F0BB0F40F4BF2B11F41D
:1038C00060FF04C06F5F7F4F8F4F9F4F089557FD7C
:1038D0009058440F551F59F05F3F71F04795880F7E
:1038E00097FB991F61F09F3F79F087950895121615
:1038F00013061406551FF2CF4695F1DF08C01616C1
:1039000017061806991FF1CF869571056105089471
:103910000895E894BB2766277727CB0197F9089588
:103920000E94A31C0C94561C0E94481C38F00E9454
:103930004F1C20F0952311F00C943F1C0C94451C57
:1039400011240C948A1C0E94671C70F3959FC1F38C
:10395000950F50E0551F629FF001729FBB27F00D3D
:10396000B11D639FAA27F00DB11DAA1F649F662792
:10397000B00DA11D661F829F2227B00DA11D621FE1
:10398000739FB00DA11D621F839FA00D611D221F9B
:10399000749F3327A00D611D231F849F600D211D7F
:1039A000822F762F6A2F11249F5750409AF0F1F002
:1039B00088234AF0EE0FFF1FBB1F661F771F881F6B
:1039C00091505040A9F79E3F510580F00C943F1C48
:1039D0000C948A1C5F3FE4F3983ED4F38695779568
:1039E0006795B795F795E7959F5FC1F7FE2B880F11
:1039F000911D9695879597F90895DB018F939F9375
:103A00000E947C1DBF91AF91A29F800D911DA39F2D
:103A1000900DB29F900D11240895AA1BBB1B51E17C
:103A200007C0AA1FBB1FA617B70710F0A61BB70B2E
:103A3000881F991F5A95A9F780959095BC01CD01D3
:103A4000089597FB072E16F4009407D077FD09D050
:103A50000E940D1D07FC05D03EF4909581959F4F67
:103A60000895709561957F4F0895A1E21A2EAA1BC3
:103A7000BB1BFD010DC0AA1FBB1FEE1FFF1FA2171E
:103A8000B307E407F50720F0A21BB30BE40BF50B1B
:103A9000661F771F881F991F1A9469F760957095A4
:103AA000809590959B01AC01BD01CF010895052E35
:103AB00097FB1EF400940E946E1D57FD07D00E94D4
:103AC000351D07FC03D04EF40C946E1D50954095A7
:103AD000309521953F4F4F4F5F4F089590958095BA
:103AE000709561957F4F8F4F9F4F0895EE0FFF1F89
:103AF0000590F491E02D09940E948F1DA59F900DD3
:103B0000B49F900DA49F800D911D11240895B7FFBF
:103B10000C947C1D0E947C1D821B930B0895A29F18
:103B2000B001B39FC001A39F700D811D1124911D91
:103B3000B29F700D811D1124911D0895FB01DC01C0
:103B400002C001900D9241505040D8F70895FB01FA
:103B5000DC0101900D920020E1F7089545325105F6
:103B600020F4423010F00C94B91DFB011082CB01FF
:103B70000895BB274A3031F4992322F4BDE2909591
:103B800081959F4F0C94011E2532310520F422307F
:103B900010F00C94CF1DFA011082CA010895BB27C2
:103BA0002A3051F4992342F4BDE2909580957095A6
:103BB00061957F4F8F4F9F4F0C94DF1DBB27FA01FC
:103BC000A62F6217710581059105330B30FB66F056
:103BD000AA27660F771F881F991FAA1FA21710F028
:103BE000A21B63953850A9F7A05DAA3308F0A95D20
:103BF000A19336F7B111B1931082CA010C941A1E29
:103C0000BB27FB015527AA27880F991FAA1FA417B6
:103C100010F0A41B83955051B9F7A05DAA3308F0AA
:103C2000A95DA193009779F7B111B1931192CB01DE
:103C30000C941A1EDC01FC01672F71917723E1F7C8
:103C4000329704C07C916D9370836291AE17BF0769
:103C5000C8F3089513E0CBE8D3E004C0FE010E944E
:0E3C6000761D2196CC38D107C9F7F894FFCF16
:103C6E000002006F126F126F120100006D038000D0
:103C7E001B021A0419082D002E00300053494E0065
:103C8E0049534157005243544700454347004E4F56
:103C9E00490054524E4700487A0044004500413ACC
:103CAE00005620004F3A00443A002520004241546D
:103CBE00544552593A200025004853002A003E0030
:103CCE003F0053657269616C207265616479000012
:103CDE000000006912DA1500000000A014DA1521A8
:103CEE00143B142D147E140D0A006E616E00696E65
:063CFE0066006F7666000F
:00000001FF
